{
  "_format": "hh-sol-artifact-1",
  "contractName": "GiftChain",
  "sourceName": "contracts/GiftChain.sol",
  "abi": [
    {
      "inputs": [
        {
          "internalType": "address",
          "name": "_relayer",
          "type": "address"
        }
      ],
      "stateMutability": "nonpayable",
      "type": "constructor"
    },
    {
      "inputs": [],
      "name": "ARRAY_LENGTH_MISMATCH",
      "type": "error"
    },
    {
      "inputs": [],
      "name": "BULK_CREATION_FAILED",
      "type": "error"
    },
    {
      "inputs": [],
      "name": "BULK_CREATION_MUST_BE_AT_LEAST_5",
      "type": "error"
    },
    {
      "inputs": [],
      "name": "CAMPAIGN_ALREADY_EXIST",
      "type": "error"
    },
    {
      "inputs": [],
      "name": "CAMPAIGN_EXPIRED",
      "type": "error"
    },
    {
      "inputs": [],
      "name": "CAMPAIGN_NOT_ENDED",
      "type": "error"
    },
    {
      "inputs": [],
      "name": "CAMPAIGN_NOT_FOUND",
      "type": "error"
    },
    {
      "inputs": [],
      "name": "CARD_ALREADY_EXIST",
      "type": "error"
    },
    {
      "inputs": [],
      "name": "CREATOR_CANNOT_CLAIM_GIFT",
      "type": "error"
    },
    {
      "inputs": [],
      "name": "CREATOR_MISMATCH",
      "type": "error"
    },
    {
      "inputs": [],
      "name": "EXCEEDS_CAMPAIGN_GOAL",
      "type": "error"
    },
    {
      "inputs": [],
      "name": "EXPECT_3_TO_50_MESSAGE_CHARACTER",
      "type": "error"
    },
    {
      "inputs": [],
      "name": "EXPIRY_CAN_ONLY_BE_IN_FUTURE",
      "type": "error"
    },
    {
      "inputs": [],
      "name": "FUNDS_ALREADY_WITHDRAWN",
      "type": "error"
    },
    {
      "inputs": [],
      "name": "GIFT_CLAIMED",
      "type": "error"
    },
    {
      "inputs": [],
      "name": "GIFT_EXPIRED",
      "type": "error"
    },
    {
      "inputs": [],
      "name": "GIFT_NOT_CLAIMABLE",
      "type": "error"
    },
    {
      "inputs": [],
      "name": "GIFT_NOT_EXPIRED_YET",
      "type": "error"
    },
    {
      "inputs": [],
      "name": "GiftAlreadyReclaimed",
      "type": "error"
    },
    {
      "inputs": [],
      "name": "GiftAlreadyRedeemed",
      "type": "error"
    },
    {
      "inputs": [],
      "name": "GiftNotFound",
      "type": "error"
    },
    {
      "inputs": [],
      "name": "INVALID_ADDRESS",
      "type": "error"
    },
    {
      "inputs": [],
      "name": "INVALID_AMOUNT",
      "type": "error"
    },
    {
      "inputs": [],
      "name": "INVALID_DESCRIPTION",
      "type": "error"
    },
    {
      "inputs": [],
      "name": "INVALID_GIFTID",
      "type": "error"
    },
    {
      "inputs": [],
      "name": "INVALID_TITLE",
      "type": "error"
    },
    {
      "inputs": [],
      "name": "NOT_AUTHORIZE_TO_RECLAIM_GIFT",
      "type": "error"
    },
    {
      "inputs": [],
      "name": "NOT_AUTHORIZE_TO_WITHDRAW",
      "type": "error"
    },
    {
      "inputs": [],
      "name": "NO_FUNDS_TO_WITHDRAW",
      "type": "error"
    },
    {
      "inputs": [],
      "name": "ONLY_CONTRACT_HAS_ACCESS",
      "type": "error"
    },
    {
      "inputs": [],
      "name": "ONLY_RELAYER_HAS_ACCESS",
      "type": "error"
    },
    {
      "inputs": [],
      "name": "ReentrancyGuardReentrantCall",
      "type": "error"
    },
    {
      "inputs": [
        {
          "internalType": "address",
          "name": "token",
          "type": "address"
        }
      ],
      "name": "SafeERC20FailedOperation",
      "type": "error"
    },
    {
      "inputs": [],
      "name": "TRANSFER_FAILED",
      "type": "error"
    },
    {
      "anonymous": false,
      "inputs": [
        {
          "indexed": true,
          "internalType": "bytes32",
          "name": "campaignID",
          "type": "bytes32"
        },
        {
          "indexed": true,
          "internalType": "address",
          "name": "creator",
          "type": "address"
        },
        {
          "indexed": false,
          "internalType": "string",
          "name": "title",
          "type": "string"
        },
        {
          "indexed": false,
          "internalType": "string",
          "name": "description",
          "type": "string"
        },
        {
          "indexed": false,
          "internalType": "uint256",
          "name": "goal",
          "type": "uint256"
        },
        {
          "indexed": false,
          "internalType": "uint256",
          "name": "deadline",
          "type": "uint256"
        }
      ],
      "name": "CampaignCreated",
      "type": "event"
    },
    {
      "anonymous": false,
      "inputs": [
        {
          "indexed": true,
          "internalType": "bytes32",
          "name": "creator",
          "type": "bytes32"
        },
        {
          "indexed": true,
          "internalType": "address",
          "name": "contributor",
          "type": "address"
        },
        {
          "indexed": true,
          "internalType": "address",
          "name": "token",
          "type": "address"
        },
        {
          "indexed": false,
          "internalType": "uint256",
          "name": "amount",
          "type": "uint256"
        }
      ],
      "name": "ContributionAdded",
      "type": "event"
    },
    {
      "anonymous": false,
      "inputs": [
        {
          "indexed": true,
          "internalType": "bytes32",
          "name": "creator",
          "type": "bytes32"
        },
        {
          "indexed": true,
          "internalType": "address",
          "name": "contributor",
          "type": "address"
        },
        {
          "indexed": false,
          "internalType": "uint256",
          "name": "amount",
          "type": "uint256"
        }
      ],
      "name": "ContributionWithdrawn",
      "type": "event"
    },
    {
      "anonymous": false,
      "inputs": [
        {
          "indexed": true,
          "internalType": "bytes32",
          "name": "campaignID",
          "type": "bytes32"
        },
        {
          "indexed": true,
          "internalType": "address",
          "name": "donor",
          "type": "address"
        },
        {
          "indexed": false,
          "internalType": "uint256",
          "name": "amount",
          "type": "uint256"
        }
      ],
      "name": "DonationReceived",
      "type": "event"
    },
    {
      "anonymous": false,
      "inputs": [
        {
          "indexed": true,
          "internalType": "bytes32",
          "name": "giftID",
          "type": "bytes32"
        },
        {
          "indexed": true,
          "internalType": "address",
          "name": "recipient",
          "type": "address"
        },
        {
          "indexed": false,
          "internalType": "uint256",
          "name": "amount",
          "type": "uint256"
        },
        {
          "indexed": false,
          "internalType": "string",
          "name": "status",
          "type": "string"
        }
      ],
      "name": "GiftClaimed",
      "type": "event"
    },
    {
      "anonymous": false,
      "inputs": [
        {
          "indexed": true,
          "internalType": "bytes32",
          "name": "giftID",
          "type": "bytes32"
        },
        {
          "indexed": true,
          "internalType": "bytes32",
          "name": "creator",
          "type": "bytes32"
        },
        {
          "indexed": true,
          "internalType": "address",
          "name": "token",
          "type": "address"
        },
        {
          "indexed": false,
          "internalType": "string",
          "name": "message",
          "type": "string"
        },
        {
          "indexed": false,
          "internalType": "uint256",
          "name": "amount",
          "type": "uint256"
        },
        {
          "indexed": false,
          "internalType": "uint256",
          "name": "expiry",
          "type": "uint256"
        },
        {
          "indexed": false,
          "internalType": "uint256",
          "name": "timeCreated",
          "type": "uint256"
        },
        {
          "indexed": false,
          "internalType": "string",
          "name": "status",
          "type": "string"
        }
      ],
      "name": "GiftCreated",
      "type": "event"
    },
    {
      "anonymous": false,
      "inputs": [
        {
          "indexed": true,
          "internalType": "bytes32",
          "name": "giftID",
          "type": "bytes32"
        },
        {
          "indexed": true,
          "internalType": "address",
          "name": "recipient",
          "type": "address"
        },
        {
          "indexed": false,
          "internalType": "uint256",
          "name": "amount",
          "type": "uint256"
        },
        {
          "indexed": false,
          "internalType": "string",
          "name": "status",
          "type": "string"
        }
      ],
      "name": "GiftReclaimed",
      "type": "event"
    },
    {
      "inputs": [
        {
          "internalType": "address",
          "name": "_token",
          "type": "address"
        },
        {
          "internalType": "uint256[]",
          "name": "_amounts",
          "type": "uint256[]"
        },
        {
          "internalType": "uint256[]",
          "name": "_expiries",
          "type": "uint256[]"
        },
        {
          "internalType": "string[]",
          "name": "_messages",
          "type": "string[]"
        },
        {
          "internalType": "bytes32[]",
          "name": "_giftIDs",
          "type": "bytes32[]"
        },
        {
          "internalType": "bytes32",
          "name": "_creator",
          "type": "bytes32"
        }
      ],
      "name": "_createBulkGifts",
      "outputs": [],
      "stateMutability": "nonpayable",
      "type": "function"
    },
    {
      "inputs": [
        {
          "internalType": "bytes32",
          "name": "",
          "type": "bytes32"
        }
      ],
      "name": "campaigns",
      "outputs": [
        {
          "internalType": "address",
          "name": "creator",
          "type": "address"
        },
        {
          "internalType": "address",
          "name": "token",
          "type": "address"
        },
        {
          "internalType": "string",
          "name": "title",
          "type": "string"
        },
        {
          "internalType": "string",
          "name": "description",
          "type": "string"
        },
        {
          "internalType": "uint256",
          "name": "goal",
          "type": "uint256"
        },
        {
          "internalType": "uint256",
          "name": "deadline",
          "type": "uint256"
        },
        {
          "internalType": "uint256",
          "name": "raisedAmount",
          "type": "uint256"
        },
        {
          "internalType": "bool",
          "name": "withdrawn",
          "type": "bool"
        }
      ],
      "stateMutability": "view",
      "type": "function"
    },
    {
      "inputs": [
        {
          "internalType": "bytes32",
          "name": "giftID",
          "type": "bytes32"
        }
      ],
      "name": "claimGift",
      "outputs": [],
      "stateMutability": "nonpayable",
      "type": "function"
    },
    {
      "inputs": [
        {
          "internalType": "address",
          "name": "_token",
          "type": "address"
        },
        {
          "internalType": "uint256[]",
          "name": "_amounts",
          "type": "uint256[]"
        },
        {
          "internalType": "uint256[]",
          "name": "_expiries",
          "type": "uint256[]"
        },
        {
          "internalType": "string[]",
          "name": "_messages",
          "type": "string[]"
        },
        {
          "internalType": "bytes32[]",
          "name": "_giftIDs",
          "type": "bytes32[]"
        },
        {
          "internalType": "bytes32",
          "name": "_creator",
          "type": "bytes32"
        }
      ],
      "name": "createBulkGifts",
      "outputs": [],
      "stateMutability": "nonpayable",
      "type": "function"
    },
    {
      "inputs": [
        {
          "internalType": "string",
          "name": "_title",
          "type": "string"
        },
        {
          "internalType": "string",
          "name": "_description",
          "type": "string"
        },
        {
          "internalType": "address",
          "name": "_token",
          "type": "address"
        },
        {
          "internalType": "uint256",
          "name": "_goal",
          "type": "uint256"
        },
        {
          "internalType": "uint256",
          "name": "_deadline",
          "type": "uint256"
        },
        {
          "internalType": "bytes32",
          "name": "_campaignID",
          "type": "bytes32"
        }
      ],
      "name": "createCampaign",
      "outputs": [],
      "stateMutability": "nonpayable",
      "type": "function"
    },
    {
      "inputs": [
        {
          "internalType": "address",
          "name": "_token",
          "type": "address"
        },
        {
          "internalType": "uint256",
          "name": "_amount",
          "type": "uint256"
        },
        {
          "internalType": "uint256",
          "name": "_expiry",
          "type": "uint256"
        },
        {
          "internalType": "string",
          "name": "_message",
          "type": "string"
        },
        {
          "internalType": "bytes32",
          "name": "_giftID",
          "type": "bytes32"
        },
        {
          "internalType": "bytes32",
          "name": "_creator",
          "type": "bytes32"
        }
      ],
      "name": "createGift",
      "outputs": [],
      "stateMutability": "nonpayable",
      "type": "function"
    },
    {
      "inputs": [
        {
          "internalType": "bytes32",
          "name": "_campaignID",
          "type": "bytes32"
        },
        {
          "internalType": "uint256",
          "name": "_amount",
          "type": "uint256"
        }
      ],
      "name": "donateToCampaign",
      "outputs": [],
      "stateMutability": "nonpayable",
      "type": "function"
    },
    {
      "inputs": [
        {
          "internalType": "bytes32",
          "name": "_campaignID",
          "type": "bytes32"
        }
      ],
      "name": "getCampaignDetails",
      "outputs": [
        {
          "internalType": "address",
          "name": "creator",
          "type": "address"
        },
        {
          "internalType": "address",
          "name": "token",
          "type": "address"
        },
        {
          "internalType": "string",
          "name": "title",
          "type": "string"
        },
        {
          "internalType": "string",
          "name": "description",
          "type": "string"
        },
        {
          "internalType": "uint256",
          "name": "goal",
          "type": "uint256"
        },
        {
          "internalType": "uint256",
          "name": "deadline",
          "type": "uint256"
        },
        {
          "internalType": "uint256",
          "name": "raisedAmount",
          "type": "uint256"
        },
        {
          "internalType": "bool",
          "name": "withdrawn",
          "type": "bool"
        }
      ],
      "stateMutability": "view",
      "type": "function"
    },
    {
      "inputs": [
        {
          "internalType": "bytes32",
          "name": "",
          "type": "bytes32"
        }
      ],
      "name": "gifts",
      "outputs": [
        {
          "internalType": "address",
          "name": "token",
          "type": "address"
        },
        {
          "internalType": "bool",
          "name": "claimed",
          "type": "bool"
        },
        {
          "internalType": "uint256",
          "name": "expiry",
          "type": "uint256"
        },
        {
          "internalType": "uint256",
          "name": "timeCreated",
          "type": "uint256"
        },
        {
          "internalType": "uint256",
          "name": "amount",
          "type": "uint256"
        },
        {
          "internalType": "string",
          "name": "message",
          "type": "string"
        },
        {
          "internalType": "enum GiftChain.Status",
          "name": "status",
          "type": "uint8"
        },
        {
          "internalType": "bytes32",
          "name": "creator",
          "type": "bytes32"
        }
      ],
      "stateMutability": "view",
      "type": "function"
    },
    {
      "inputs": [
        {
          "internalType": "bytes32",
          "name": "giftID",
          "type": "bytes32"
        }
      ],
      "name": "reclaimGift",
      "outputs": [],
      "stateMutability": "nonpayable",
      "type": "function"
    },
    {
      "inputs": [
        {
          "internalType": "bytes32",
          "name": "giftID",
          "type": "bytes32"
        }
      ],
      "name": "validateGift",
      "outputs": [
        {
          "internalType": "bool",
          "name": "isValid",
          "type": "bool"
        },
        {
          "internalType": "string",
          "name": "message",
          "type": "string"
        }
      ],
      "stateMutability": "view",
      "type": "function"
    },
    {
      "inputs": [
        {
          "internalType": "bytes32",
          "name": "_campaignID",
          "type": "bytes32"
        }
      ],
      "name": "withdrawCampaignFunds",
      "outputs": [],
      "stateMutability": "nonpayable",
      "type": "function"
    }
  ],
  "bytecode": "0x6080604052348015600f57600080fd5b506040516125e23803806125e2833981016040819052602c916055565b6001600081905580546001600160a01b0319166001600160a01b03929092169190911790556083565b600060208284031215606657600080fd5b81516001600160a01b0381168114607c57600080fd5b9392505050565b612550806100926000396000f3fe608060405234801561001057600080fd5b50600436106100b45760003560e01c80639e85dad9116100715780639e85dad9146101585780639eca2f1e1461016b578063b0a1ae001461017e578063da138e1214610191578063ec2de8c1146101b8578063fd7a1e0b146101cb57600080fd5b80631222b05d146100b95780632cccc4c4146100ce5780635f55e1a6146100e1578063913afba514610111578063957b8610146101245780639617cff514610145575b600080fd5b6100cc6100c7366004611c1a565b6101de565b005b6100cc6100dc366004611cfb565b610386565b6100f46100ef366004611d8e565b6105a1565b604051610108989796959493929190611ded565b60405180910390f35b6100cc61011f366004611d8e565b6107b1565b610137610132366004611d8e565b61093f565b604051610108929190611e56565b6100cc610153366004611d8e565b610be9565b6100cc610166366004611ec4565b610da1565b6100f4610179366004611d8e565b611165565b6100cc61018c366004611ec4565b6112c7565b6101a461019f366004611d8e565b611579565b604051610108989796959493929190611fca565b6100cc6101c6366004611d8e565b611655565b6100cc6101d936600461203d565b611811565b6101e6611ad8565b600082815260046020526040902080546001600160a01b031661021c57604051636df1127b60e11b815260040160405180910390fd5b806005015442111561024157604051631416cd8360e01b815260040160405180910390fd5b816000036102625760405163fae8279160e01b815260040160405180910390fd5b806004015482826006015461027791906120c5565b111561029657604051638c52277b60e01b815260040160405180910390fd5b60018101546001600160a01b03166102b081333086611b02565b828260060160008282546102c491906120c5565b9091555050604051838152339085907f3c0eff4f142cbce74bccfc168392c83a24f470999e24cef8ae1558fb729effa89060200160405180910390a3600182015482546040516001600160a01b03928316923392610327929116906020016120de565b604051602081830303815290604052805190602001207f21194f8bee8e92f2ad0f11b9af467089bdda3501a6551045d7d0925790097ae18660405161036e91815260200190565b60405180910390a450506103826001600055565b5050565b85516000036103a857604051635d99db2760e11b815260040160405180910390fd5b845115806103b7575060328551115b156103d557604051635fd10aad60e01b815260040160405180910390fd5b826000036103f65760405163fae8279160e01b815260040160405180910390fd5b428211610416576040516304e9683960e21b815260040160405180910390fd5b6000818152600460205260409020546001600160a01b03161561044c57604051632b1fdf7160e11b815260040160405180910390fd5b6001600160a01b03841661047357604051635963709b60e01b815260040160405180910390fd5b60408051610100810182523381526001600160a01b0386811660208084019182528385018b8152606085018b90526080850189905260a08501889052600060c0860181905260e086018190528781526004909252949020835181549084166001600160a01b0319918216178255915160018201805491909416921691909117909155915190919060028201906105099082612183565b506060820151600382019061051e9082612183565b506080820151600482015560a0820151600582015560c0820151600682015560e0909101516007909101805460ff1916911515919091179055604051339082907f5e6dc7ee5607d4290fc831565a5d121cb33854fec32062f59b1daf0342a2f46690610591908a908a9089908990612241565b60405180910390a3505050505050565b600081815260046020908152604080832081516101008101835281546001600160a01b039081168252600183015416938101939093526002810180548594606094859487948594859485948594919391929084019190610600906120fb565b80601f016020809104026020016040519081016040528092919081815260200182805461062c906120fb565b80156106795780601f1061064e57610100808354040283529160200191610679565b820191906000526020600020905b81548152906001019060200180831161065c57829003601f168201915b50505050508152602001600382018054610692906120fb565b80601f01602080910402602001604051908101604052809291908181526020018280546106be906120fb565b801561070b5780601f106106e05761010080835404028352916020019161070b565b820191906000526020600020905b8154815290600101906020018083116106ee57829003601f168201915b505050918352505060048201546020820152600582015460408201526006820154606082015260079091015460ff16151560809091015280519091506001600160a01b031661076d57604051636df1127b60e11b815260040160405180910390fd5b806000015181602001518260400151836060015184608001518560a001518660c001518760e001519850985098509850985098509850985050919395975091939597565b6107b9611ad8565b600081815260046020526040902080546001600160a01b03166107ef57604051636df1127b60e11b815260040160405180910390fd5b80546001600160a01b0316331461081957604051631be8554560e11b815260040160405180910390fd5b8060050154421161083d5760405163966c987560e01b815260040160405180910390fd5b600781015460ff161561086357604051636bc365a560e11b815260040160405180910390fd5b80600601546000036108885760405163e4e22ecb60e01b815260040160405180910390fd5b60078101805460ff19166001908117909155810154815460068301546001600160a01b03928316926108be928492911690611b6f565b815460405133916108dd916001600160a01b03909116906020016120de565b604051602081830303815290604052805190602001207ff791e57e3858e95f6ab3a43c5826d3dbd3226b92561d1ca3c522bc3de290665a846006015460405161092891815260200190565b60405180910390a3505061093c6001600055565b50565b600081815260026020818152604080842081516101008101835281546001600160a01b0381168252600160a01b900460ff1615159381019390935260018101549183019190915291820154606080830191909152600383015460808301526004830180549193859392909160a08401916109b8906120fb565b80601f01602080910402602001604051908101604052809291908181526020018280546109e4906120fb565b8015610a315780601f10610a0657610100808354040283529160200191610a31565b820191906000526020600020905b815481529060010190602001808311610a1457829003601f168201915b5050509183525050600582015460209091019060ff166003811115610a5857610a58611fb4565b6003811115610a6957610a69611fb4565b81526006919091015460209091015280519091506001600160a01b0316610abd5760006040518060400160405280600e81526020016d11da599d081b9bdd08199bdd5b9960921b8152509250925050915091565b60028160c001516003811115610ad557610ad5611fb4565b03610b135760006040518060400160405280601481526020017311da599d08185b1c9958591e4818db185a5b595960621b8152509250925050915091565b60038160c001516003811115610b2b57610b2b611fb4565b03610b635760006040518060400160405280600e81526020016d11da599d081c9958db185a5b595960921b8152509250925050915091565b60018160c001516003811115610b7b57610b7b611fb4565b14610bba5760006040518060400160405280601581526020017411da599d08185b1c9958591e481c995919595b5959605a1b8152509250925050915091565b60016040518060400160405280600a81526020016915985b1a590819da599d60b21b8152509250925050915091565b610bf1611ad8565b600081815260026020526040902080546001600160a01b0316610c2757604051631862cfe960e01b815260040160405180910390fd5b8060030154600003610c4c57604051637151516360e11b815260040160405180910390fd5b6001600582015460ff166003811115610c6757610c67611fb4565b14610c855760405163095a27af60e21b815260040160405180910390fd5b4281600101541015610caa5760405163e588b00760e01b815260040160405180910390fd5b33604051602001610cbb91906120de565b60405160208183030381529060405280519060200120816006015403610cf457604051630130f5ad60e31b815260040160405180910390fd5b60058101805460ff191660021790558054600160a01b60ff60a01b1982161782556003820154610d2f916001600160a01b0316903390611b6f565b336001600160a01b0316827f5fa3f9e7544621698efa9f5cc7b1671d9b5c3c6cf35527e0553e77fa0faa67f88360030154604051610d8e9181526040602082018190526007908201526610d3105253515160ca1b606082015260800190565b60405180910390a35061093c6001600055565b333014610dc157604051633f04a41560e01b815260040160405180910390fd5b60005b888110156111585742888883818110610ddf57610ddf61227a565b9050602002013511610e04576040516304e9683960e21b815260040160405180910390fd5b6003868683818110610e1857610e1861227a565b9050602002810190610e2a9190612290565b90501080610e5d57506032868683818110610e4757610e4761227a565b9050602002810190610e599190612290565b9050115b15610e7b5760405163312181a360e21b815260040160405180910390fd5b60026000858584818110610e9157610e9161227a565b90506020020135815260200190815260200160002060020154600014610eca5760405163012163ef60e11b815260040160405180910390fd5b898982818110610edc57610edc61227a565b90506020020135600360008481526020019081526020016000206000828254610f0591906122d6565b909155505060408051610100810182526001600160a01b038d16815260006020820152908101898984818110610f3d57610f3d61227a565b9050602002013581526020014281526020018b8b84818110610f6157610f6161227a565b905060200201358152602001878784818110610f7f57610f7f61227a565b9050602002810190610f919190612290565b8080601f0160208091040260200160405190810160405280939291908181526020018383808284376000920191909152505050908252506020016001815260200183905260026000868685818110610feb57610feb61227a565b6020908102929092013583525081810192909252604090810160002083518154938501511515600160a01b026001600160a81b03199094166001600160a01b03909116179290921782558201516001820155606082015160028201556080820151600382015560a082015160048201906110659082612183565b5060c082015160058201805460ff1916600183600381111561108957611089611fb4565b021790555060e082015181600601559050508a6001600160a01b0316828585848181106110b8576110b861227a565b905060200201357ffc007ae3f08ac6d013bf8e2d0783d44a7f8ed16433190293618d9ee28f734aed8989868181106110f2576110f261227a565b90506020028101906111049190612290565b8f8f888181106111165761111661227a565b905060200201358e8e8981811061112f5761112f61227a565b9050602002013542604051611148959493929190612312565b60405180910390a4600101610dc4565b5050505050505050505050565b6004602052600090815260409020805460018201546002830180546001600160a01b0393841694929093169261119a906120fb565b80601f01602080910402602001604051908101604052809291908181526020018280546111c6906120fb565b80156112135780601f106111e857610100808354040283529160200191611213565b820191906000526020600020905b8154815290600101906020018083116111f657829003601f168201915b505050505090806003018054611228906120fb565b80601f0160208091040260200160405190810160405280929190818152602001828054611254906120fb565b80156112a15780601f10611276576101008083540402835291602001916112a1565b820191906000526020600020905b81548152906001019060200180831161128457829003601f168201915b505050506004830154600584015460068501546007909501549394919390925060ff1688565b60058810156112e95760405163433f120b60e01b815260040160405180910390fd5b87861415806112f85750878414155b806113035750878214155b1561132157604051634456f5e960e11b815260040160405180910390fd5b803360405160200161133391906120de565b604051602081830303815290604052805190602001201461136757604051630617762360e51b815260040160405180910390fd5b6001600160a01b038a1661138e57604051635963709b60e01b815260040160405180910390fd5b896000805b8a8110156114025760008c8c838181106113af576113af61227a565b90506020020135116113d45760405163fae8279160e01b815260040160405180910390fd5b8b8b828181106113e6576113e661227a565b90506020020135826113f891906120c5565b9150600101611393565b506040516323b872dd60e01b8152336004820152306024820152604481018290526001600160a01b038316906323b872dd906064016020604051808303816000875af1158015611456573d6000803e3d6000fd5b505050506040513d601f19601f8201168201806040525081019061147a919061236a565b61149757604051631fa55c0760e11b815260040160405180910390fd5b6000838152600360205260409081902082905551639e85dad960e01b81523090639e85dad9906114dd908f908f908f908f908f908f908f908f908f908f906004016123c5565b600060405180830381600087803b1580156114f757600080fd5b505af1925050508015611508575060015b61155d576000838152600360205260409020548015611544576000848152600360205260408120556115446001600160a01b0384163383611b6f565b6040516303f777b760e21b815260040160405180910390fd5b5050600090815260036020526040812055505050505050505050565b6002602081905260009182526040909120805460018201549282015460038301546004840180546001600160a01b03851696600160a01b90950460ff169591906115c2906120fb565b80601f01602080910402602001604051908101604052809291908181526020018280546115ee906120fb565b801561163b5780601f106116105761010080835404028352916020019161163b565b820191906000526020600020905b81548152906001019060200180831161161e57829003601f168201915b505050506005830154600690930154919260ff1691905088565b61165d611ad8565b600081815260026020526040902080546001600160a01b031661169357604051630615b0ed60e41b815260040160405180910390fd5b8060060154336040516020016116a991906120de565b60405160208183030381529060405280519060200120146116dd57604051633c68288f60e01b815260040160405180910390fd5b6002600582015460ff1660038111156116f8576116f8611fb4565b03611716576040516388e8ca6560e01b815260040160405180910390fd5b6003600582015460ff16600381111561173157611731611fb4565b0361174f57604051631102656960e11b815260040160405180910390fd5b80600101544211611773576040516308dbecb960e11b815260040160405180910390fd5b60058101805460ff191660039081179091558154600160a01b60ff60a01b198216178355908201546117b0916001600160a01b0316903390611b6f565b336001600160a01b0316827f285a507b21ee662f44aa4ce8b5b57ed14c3beecede75c04bea30e8ce14a2e7768360030154604051610d8e91815260406020820181905260099082015268149150d3105253515160ba1b606082015260800190565b6001546001600160a01b0316331461183c5760405163984ab90960e01b815260040160405180910390fd5b6001600160a01b03861661186357604051635963709b60e01b815260040160405180910390fd5b600085116118845760405163fae8279160e01b815260040160405180910390fd5b4284116118a4576040516304e9683960e21b815260040160405180910390fd5b6003835110806118b5575060328351115b156118d35760405163312181a360e21b815260040160405180910390fd5b60008281526002602081905260409091200154156119045760405163012163ef60e11b815260040160405180910390fd5b6040516323b872dd60e01b81523360048201523060248201526044810186905286906001600160a01b038216906323b872dd906064016020604051808303816000875af1158015611959573d6000803e3d6000fd5b505050506040513d601f19601f8201168201806040525081019061197d919061236a565b61199a57604051631fa55c0760e11b815260040160405180910390fd5b60408051610100810182526001600160a01b0389168152600060208201529081018690524260608201526080810187905260a0810185905260c081016001815260209081018490526000858152600280835260409182902084518154948601511515600160a01b026001600160a81b03199095166001600160a01b03909116179390931783559083015160018301556060830151908201556080820151600382015560a08201516004820190611a509082612183565b5060c082015160058201805460ff19166001836003811115611a7457611a74611fb4565b021790555060e08201518160060155905050866001600160a01b031682847ffc007ae3f08ac6d013bf8e2d0783d44a7f8ed16433190293618d9ee28f734aed878a8a42604051611ac794939291906124c4565b60405180910390a450505050505050565b600260005403611afb57604051633ee5aeb560e01b815260040160405180910390fd5b6002600055565b6040516001600160a01b038481166024830152838116604483015260648201839052611b699186918216906323b872dd906084015b604051602081830303815290604052915060e01b6020820180516001600160e01b038381831617835250505050611ba5565b50505050565b6040516001600160a01b03838116602483015260448201839052611ba091859182169063a9059cbb90606401611b37565b505050565b600080602060008451602086016000885af180611bc8576040513d6000823e3d81fd5b50506000513d91508115611be0578060011415611bed565b6001600160a01b0384163b155b15611b6957604051635274afe760e01b81526001600160a01b038516600482015260240160405180910390fd5b60008060408385031215611c2d57600080fd5b50508035926020909101359150565b634e487b7160e01b600052604160045260246000fd5b600082601f830112611c6357600080fd5b81356001600160401b03811115611c7c57611c7c611c3c565b604051601f8201601f19908116603f011681016001600160401b0381118282101715611caa57611caa611c3c565b604052818152838201602001851015611cc257600080fd5b816020850160208301376000918101602001919091529392505050565b80356001600160a01b0381168114611cf657600080fd5b919050565b60008060008060008060c08789031215611d1457600080fd5b86356001600160401b03811115611d2a57600080fd5b611d3689828a01611c52565b96505060208701356001600160401b03811115611d5257600080fd5b611d5e89828a01611c52565b955050611d6d60408801611cdf565b959894975094956060810135955060808101359460a0909101359350915050565b600060208284031215611da057600080fd5b5035919050565b6000815180845260005b81811015611dcd57602081850181015186830182015201611db1565b506000602082860101526020601f19601f83011685010191505092915050565b6001600160a01b0389811682528816602082015261010060408201819052600090611e1a90830189611da7565b8281036060840152611e2c8189611da7565b9150508560808301528460a08301528360c083015282151560e08301529998505050505050505050565b8215158152604060208201526000611e716040830184611da7565b949350505050565b60008083601f840112611e8b57600080fd5b5081356001600160401b03811115611ea257600080fd5b6020830191508360208260051b8501011115611ebd57600080fd5b9250929050565b60008060008060008060008060008060c08b8d031215611ee357600080fd5b611eec8b611cdf565b995060208b01356001600160401b03811115611f0757600080fd5b611f138d828e01611e79565b909a5098505060408b01356001600160401b03811115611f3257600080fd5b611f3e8d828e01611e79565b90985096505060608b01356001600160401b03811115611f5d57600080fd5b611f698d828e01611e79565b90965094505060808b01356001600160401b03811115611f8857600080fd5b611f948d828e01611e79565b9b9e9a9d50989b979a96999598949794969560a090950135949350505050565b634e487b7160e01b600052602160045260246000fd5b60018060a01b0389168152871515602082015286604082015285606082015284608082015261010060a08201526000612007610100830186611da7565b90506004841061202757634e487b7160e01b600052602160045260246000fd5b60c082019390935260e001529695505050505050565b60008060008060008060c0878903121561205657600080fd5b61205f87611cdf565b9550602087013594506040870135935060608701356001600160401b0381111561208857600080fd5b61209489828a01611c52565b9699959850939660808101359560a090910135945092505050565b634e487b7160e01b600052601160045260246000fd5b808201808211156120d8576120d86120af565b92915050565b60609190911b6bffffffffffffffffffffffff1916815260140190565b600181811c9082168061210f57607f821691505b60208210810361212f57634e487b7160e01b600052602260045260246000fd5b50919050565b601f821115611ba057806000526020600020601f840160051c8101602085101561215c5750805b601f840160051c820191505b8181101561217c5760008155600101612168565b5050505050565b81516001600160401b0381111561219c5761219c611c3c565b6121b0816121aa84546120fb565b84612135565b6020601f8211600181146121e457600083156121cc5750848201515b600019600385901b1c1916600184901b17845561217c565b600084815260208120601f198516915b8281101561221457878501518255602094850194600190920191016121f4565b50848210156122325786840151600019600387901b60f8161c191681555b50505050600190811b01905550565b6080815260006122546080830187611da7565b82810360208401526122668187611da7565b604084019590955250506060015292915050565b634e487b7160e01b600052603260045260246000fd5b6000808335601e198436030181126122a757600080fd5b8301803591506001600160401b038211156122c157600080fd5b602001915036819003821315611ebd57600080fd5b818103818111156120d8576120d86120af565b81835281816020850137506000828201602090810191909152601f909101601f19169091010190565b60a08152600061232660a0830187896122e9565b856020840152846040840152836060840152828103608084015261235e81600781526650454e44494e4760c81b602082015260400190565b98975050505050505050565b60006020828403121561237c57600080fd5b8151801515811461238c57600080fd5b9392505050565b81835260006001600160fb1b038311156123ac57600080fd5b8260051b80836020870137939093016020019392505050565b6001600160a01b038b16815260c0602082018190526000906123ea9083018b8d612393565b82810360408401526123fd818a8c612393565b83810360608501528781529050602080820190600589901b83010189600036829003601e19015b8b82101561249457858403601f19018552823581811261244357600080fd5b8d016020810190356001600160401b0381111561245f57600080fd5b80360382131561246e57600080fd5b6124798682846122e9565b95505050602083019250602085019450600182019150612424565b50505084810360808601526124aa81888a612393565b93505050508260a08301529b9a5050505050505050505050565b60a0815260006124d760a0830187611da7565b856020840152846040840152836060840152828103608084015261250f81600781526650454e44494e4760c81b602082015260400190565b97965050505050505056fea264697066735822122071c8fdc11d14e769bde4563c7f1611779a2a5f1dc58a5e7764d3c2f631be462664736f6c634300081c0033",
  "linkReferences": {},
  "deployedLinkReferences": {}
}