{"contracts/GiftChain.sol":{"GiftChain":{"abi":[{"inputs":[{"internalType":"address","name":"_relayer","type":"address"}],"stateMutability":"nonpayable","type":"constructor"},{"inputs":[],"name":"ARRAY_LENGTH_MISMATCH","type":"error"},{"inputs":[],"name":"BULK_CREATION_FAILED","type":"error"},{"inputs":[],"name":"BULK_CREATION_MUST_BE_AT_LEAST_5","type":"error"},{"inputs":[],"name":"CAMPAIGN_ALREADY_EXIST","type":"error"},{"inputs":[],"name":"CAMPAIGN_EXPIRED","type":"error"},{"inputs":[],"name":"CAMPAIGN_NOT_ENDED","type":"error"},{"inputs":[],"name":"CAMPAIGN_NOT_FOUND","type":"error"},{"inputs":[],"name":"CARD_ALREADY_EXIST","type":"error"},{"inputs":[],"name":"CREATOR_CANNOT_CLAIM_GIFT","type":"error"},{"inputs":[],"name":"CREATOR_MISMATCH","type":"error"},{"inputs":[],"name":"EXCEEDS_CAMPAIGN_GOAL","type":"error"},{"inputs":[],"name":"EXPECT_3_TO_50_MESSAGE_CHARACTER","type":"error"},{"inputs":[],"name":"EXPIRY_CAN_ONLY_BE_IN_FUTURE","type":"error"},{"inputs":[],"name":"FUNDS_ALREADY_WITHDRAWN","type":"error"},{"inputs":[],"name":"GIFT_CLAIMED","type":"error"},{"inputs":[],"name":"GIFT_EXPIRED","type":"error"},{"inputs":[],"name":"GIFT_NOT_CLAIMABLE","type":"error"},{"inputs":[],"name":"GIFT_NOT_EXPIRED_YET","type":"error"},{"inputs":[],"name":"GiftAlreadyReclaimed","type":"error"},{"inputs":[],"name":"GiftAlreadyRedeemed","type":"error"},{"inputs":[],"name":"GiftNotFound","type":"error"},{"inputs":[],"name":"INVALID_ADDRESS","type":"error"},{"inputs":[],"name":"INVALID_AMOUNT","type":"error"},{"inputs":[],"name":"INVALID_DESCRIPTION","type":"error"},{"inputs":[],"name":"INVALID_GIFTID","type":"error"},{"inputs":[],"name":"INVALID_TITLE","type":"error"},{"inputs":[],"name":"NOT_AUTHORIZE_TO_RECLAIM_GIFT","type":"error"},{"inputs":[],"name":"NOT_AUTHORIZE_TO_WITHDRAW","type":"error"},{"inputs":[],"name":"NO_FUNDS_TO_WITHDRAW","type":"error"},{"inputs":[],"name":"ONLY_CONTRACT_HAS_ACCESS","type":"error"},{"inputs":[],"name":"ONLY_RELAYER_HAS_ACCESS","type":"error"},{"inputs":[],"name":"ReentrancyGuardReentrantCall","type":"error"},{"inputs":[{"internalType":"address","name":"token","type":"address"}],"name":"SafeERC20FailedOperation","type":"error"},{"inputs":[],"name":"TRANSFER_FAILED","type":"error"},{"anonymous":false,"inputs":[{"indexed":true,"internalType":"bytes32","name":"campaignID","type":"bytes32"},{"indexed":true,"internalType":"address","name":"creator","type":"address"},{"indexed":false,"internalType":"string","name":"title","type":"string"},{"indexed":false,"internalType":"string","name":"description","type":"string"},{"indexed":false,"internalType":"uint256","name":"goal","type":"uint256"},{"indexed":false,"internalType":"uint256","name":"deadline","type":"uint256"}],"name":"CampaignCreated","type":"event"},{"anonymous":false,"inputs":[{"indexed":true,"internalType":"bytes32","name":"creator","type":"bytes32"},{"indexed":true,"internalType":"address","name":"contributor","type":"address"},{"indexed":true,"internalType":"address","name":"token","type":"address"},{"indexed":false,"internalType":"uint256","name":"amount","type":"uint256"}],"name":"ContributionAdded","type":"event"},{"anonymous":false,"inputs":[{"indexed":true,"internalType":"bytes32","name":"creator","type":"bytes32"},{"indexed":true,"internalType":"address","name":"contributor","type":"address"},{"indexed":false,"internalType":"uint256","name":"amount","type":"uint256"}],"name":"ContributionWithdrawn","type":"event"},{"anonymous":false,"inputs":[{"indexed":true,"internalType":"bytes32","name":"campaignID","type":"bytes32"},{"indexed":true,"internalType":"address","name":"donor","type":"address"},{"indexed":false,"internalType":"uint256","name":"amount","type":"uint256"}],"name":"DonationReceived","type":"event"},{"anonymous":false,"inputs":[{"indexed":true,"internalType":"bytes32","name":"giftID","type":"bytes32"},{"indexed":true,"internalType":"address","name":"recipient","type":"address"},{"indexed":false,"internalType":"uint256","name":"amount","type":"uint256"},{"indexed":false,"internalType":"string","name":"status","type":"string"}],"name":"GiftClaimed","type":"event"},{"anonymous":false,"inputs":[{"indexed":true,"internalType":"bytes32","name":"giftID","type":"bytes32"},{"indexed":true,"internalType":"bytes32","name":"creator","type":"bytes32"},{"indexed":true,"internalType":"address","name":"token","type":"address"},{"indexed":false,"internalType":"string","name":"message","type":"string"},{"indexed":false,"internalType":"uint256","name":"amount","type":"uint256"},{"indexed":false,"internalType":"uint256","name":"expiry","type":"uint256"},{"indexed":false,"internalType":"uint256","name":"timeCreated","type":"uint256"},{"indexed":false,"internalType":"string","name":"status","type":"string"}],"name":"GiftCreated","type":"event"},{"anonymous":false,"inputs":[{"indexed":true,"internalType":"bytes32","name":"giftID","type":"bytes32"},{"indexed":true,"internalType":"address","name":"recipient","type":"address"},{"indexed":false,"internalType":"uint256","name":"amount","type":"uint256"},{"indexed":false,"internalType":"string","name":"status","type":"string"}],"name":"GiftReclaimed","type":"event"},{"inputs":[{"internalType":"address","name":"_token","type":"address"},{"internalType":"uint256[]","name":"_amounts","type":"uint256[]"},{"internalType":"uint256[]","name":"_expiries","type":"uint256[]"},{"internalType":"string[]","name":"_messages","type":"string[]"},{"internalType":"bytes32[]","name":"_giftIDs","type":"bytes32[]"},{"internalType":"bytes32","name":"_creator","type":"bytes32"}],"name":"_createBulkGifts","outputs":[],"stateMutability":"nonpayable","type":"function"},{"inputs":[{"internalType":"bytes32","name":"","type":"bytes32"}],"name":"campaigns","outputs":[{"internalType":"address","name":"creator","type":"address"},{"internalType":"address","name":"token","type":"address"},{"internalType":"string","name":"title","type":"string"},{"internalType":"string","name":"description","type":"string"},{"internalType":"uint256","name":"goal","type":"uint256"},{"internalType":"uint256","name":"deadline","type":"uint256"},{"internalType":"uint256","name":"raisedAmount","type":"uint256"},{"internalType":"bool","name":"withdrawn","type":"bool"}],"stateMutability":"view","type":"function"},{"inputs":[{"internalType":"bytes32","name":"giftID","type":"bytes32"}],"name":"claimGift","outputs":[],"stateMutability":"nonpayable","type":"function"},{"inputs":[{"internalType":"address","name":"_token","type":"address"},{"internalType":"uint256[]","name":"_amounts","type":"uint256[]"},{"internalType":"uint256[]","name":"_expiries","type":"uint256[]"},{"internalType":"string[]","name":"_messages","type":"string[]"},{"internalType":"bytes32[]","name":"_giftIDs","type":"bytes32[]"},{"internalType":"bytes32","name":"_creator","type":"bytes32"}],"name":"createBulkGifts","outputs":[],"stateMutability":"nonpayable","type":"function"},{"inputs":[{"internalType":"string","name":"_title","type":"string"},{"internalType":"string","name":"_description","type":"string"},{"internalType":"address","name":"_token","type":"address"},{"internalType":"uint256","name":"_goal","type":"uint256"},{"internalType":"uint256","name":"_deadline","type":"uint256"},{"internalType":"bytes32","name":"_campaignID","type":"bytes32"}],"name":"createCampaign","outputs":[],"stateMutability":"nonpayable","type":"function"},{"inputs":[{"internalType":"address","name":"_token","type":"address"},{"internalType":"uint256","name":"_amount","type":"uint256"},{"internalType":"uint256","name":"_expiry","type":"uint256"},{"internalType":"string","name":"_message","type":"string"},{"internalType":"bytes32","name":"_giftID","type":"bytes32"},{"internalType":"bytes32","name":"_creator","type":"bytes32"}],"name":"createGift","outputs":[],"stateMutability":"nonpayable","type":"function"},{"inputs":[{"internalType":"bytes32","name":"_campaignID","type":"bytes32"},{"internalType":"uint256","name":"_amount","type":"uint256"}],"name":"donateToCampaign","outputs":[],"stateMutability":"nonpayable","type":"function"},{"inputs":[{"internalType":"bytes32","name":"_campaignID","type":"bytes32"}],"name":"getCampaignDetails","outputs":[{"internalType":"address","name":"creator","type":"address"},{"internalType":"address","name":"token","type":"address"},{"internalType":"string","name":"title","type":"string"},{"internalType":"string","name":"description","type":"string"},{"internalType":"uint256","name":"goal","type":"uint256"},{"internalType":"uint256","name":"deadline","type":"uint256"},{"internalType":"uint256","name":"raisedAmount","type":"uint256"},{"internalType":"bool","name":"withdrawn","type":"bool"}],"stateMutability":"view","type":"function"},{"inputs":[{"internalType":"bytes32","name":"","type":"bytes32"}],"name":"gifts","outputs":[{"internalType":"address","name":"token","type":"address"},{"internalType":"bool","name":"claimed","type":"bool"},{"internalType":"uint256","name":"expiry","type":"uint256"},{"internalType":"uint256","name":"timeCreated","type":"uint256"},{"internalType":"uint256","name":"amount","type":"uint256"},{"internalType":"string","name":"message","type":"string"},{"internalType":"enum GiftChain.Status","name":"status","type":"uint8"},{"internalType":"bytes32","name":"creator","type":"bytes32"}],"stateMutability":"view","type":"function"},{"inputs":[{"internalType":"bytes32","name":"giftID","type":"bytes32"}],"name":"reclaimGift","outputs":[],"stateMutability":"nonpayable","type":"function"},{"inputs":[{"internalType":"bytes32","name":"giftID","type":"bytes32"}],"name":"validateGift","outputs":[{"internalType":"bool","name":"isValid","type":"bool"},{"internalType":"string","name":"message","type":"string"}],"stateMutability":"view","type":"function"},{"inputs":[{"internalType":"bytes32","name":"_campaignID","type":"bytes32"}],"name":"withdrawCampaignFunds","outputs":[],"stateMutability":"nonpayable","type":"function"}],"evm":{"bytecode":{"linkReferences":{},"object":"6080604052348015600f57600080fd5b506040516125e23803806125e2833981016040819052602c916055565b6001600081905580546001600160a01b0319166001600160a01b03929092169190911790556083565b600060208284031215606657600080fd5b81516001600160a01b0381168114607c57600080fd5b9392505050565b612550806100926000396000f3fe608060405234801561001057600080fd5b50600436106100b45760003560e01c80639e85dad9116100715780639e85dad9146101585780639eca2f1e1461016b578063b0a1ae001461017e578063da138e1214610191578063ec2de8c1146101b8578063fd7a1e0b146101cb57600080fd5b80631222b05d146100b95780632cccc4c4146100ce5780635f55e1a6146100e1578063913afba514610111578063957b8610146101245780639617cff514610145575b600080fd5b6100cc6100c7366004611c1a565b6101de565b005b6100cc6100dc366004611cfb565b610386565b6100f46100ef366004611d8e565b6105a1565b604051610108989796959493929190611ded565b60405180910390f35b6100cc61011f366004611d8e565b6107b1565b610137610132366004611d8e565b61093f565b604051610108929190611e56565b6100cc610153366004611d8e565b610be9565b6100cc610166366004611ec4565b610da1565b6100f4610179366004611d8e565b611165565b6100cc61018c366004611ec4565b6112c7565b6101a461019f366004611d8e565b611579565b604051610108989796959493929190611fca565b6100cc6101c6366004611d8e565b611655565b6100cc6101d936600461203d565b611811565b6101e6611ad8565b600082815260046020526040902080546001600160a01b031661021c57604051636df1127b60e11b815260040160405180910390fd5b806005015442111561024157604051631416cd8360e01b815260040160405180910390fd5b816000036102625760405163fae8279160e01b815260040160405180910390fd5b806004015482826006015461027791906120c5565b111561029657604051638c52277b60e01b815260040160405180910390fd5b60018101546001600160a01b03166102b081333086611b02565b828260060160008282546102c491906120c5565b9091555050604051838152339085907f3c0eff4f142cbce74bccfc168392c83a24f470999e24cef8ae1558fb729effa89060200160405180910390a3600182015482546040516001600160a01b03928316923392610327929116906020016120de565b604051602081830303815290604052805190602001207f21194f8bee8e92f2ad0f11b9af467089bdda3501a6551045d7d0925790097ae18660405161036e91815260200190565b60405180910390a450506103826001600055565b5050565b85516000036103a857604051635d99db2760e11b815260040160405180910390fd5b845115806103b7575060328551115b156103d557604051635fd10aad60e01b815260040160405180910390fd5b826000036103f65760405163fae8279160e01b815260040160405180910390fd5b428211610416576040516304e9683960e21b815260040160405180910390fd5b6000818152600460205260409020546001600160a01b03161561044c57604051632b1fdf7160e11b815260040160405180910390fd5b6001600160a01b03841661047357604051635963709b60e01b815260040160405180910390fd5b60408051610100810182523381526001600160a01b0386811660208084019182528385018b8152606085018b90526080850189905260a08501889052600060c0860181905260e086018190528781526004909252949020835181549084166001600160a01b0319918216178255915160018201805491909416921691909117909155915190919060028201906105099082612183565b506060820151600382019061051e9082612183565b506080820151600482015560a0820151600582015560c0820151600682015560e0909101516007909101805460ff1916911515919091179055604051339082907f5e6dc7ee5607d4290fc831565a5d121cb33854fec32062f59b1daf0342a2f46690610591908a908a9089908990612241565b60405180910390a3505050505050565b600081815260046020908152604080832081516101008101835281546001600160a01b039081168252600183015416938101939093526002810180548594606094859487948594859485948594919391929084019190610600906120fb565b80601f016020809104026020016040519081016040528092919081815260200182805461062c906120fb565b80156106795780601f1061064e57610100808354040283529160200191610679565b820191906000526020600020905b81548152906001019060200180831161065c57829003601f168201915b50505050508152602001600382018054610692906120fb565b80601f01602080910402602001604051908101604052809291908181526020018280546106be906120fb565b801561070b5780601f106106e05761010080835404028352916020019161070b565b820191906000526020600020905b8154815290600101906020018083116106ee57829003601f168201915b505050918352505060048201546020820152600582015460408201526006820154606082015260079091015460ff16151560809091015280519091506001600160a01b031661076d57604051636df1127b60e11b815260040160405180910390fd5b806000015181602001518260400151836060015184608001518560a001518660c001518760e001519850985098509850985098509850985050919395975091939597565b6107b9611ad8565b600081815260046020526040902080546001600160a01b03166107ef57604051636df1127b60e11b815260040160405180910390fd5b80546001600160a01b0316331461081957604051631be8554560e11b815260040160405180910390fd5b8060050154421161083d5760405163966c987560e01b815260040160405180910390fd5b600781015460ff161561086357604051636bc365a560e11b815260040160405180910390fd5b80600601546000036108885760405163e4e22ecb60e01b815260040160405180910390fd5b60078101805460ff19166001908117909155810154815460068301546001600160a01b03928316926108be928492911690611b6f565b815460405133916108dd916001600160a01b03909116906020016120de565b604051602081830303815290604052805190602001207ff791e57e3858e95f6ab3a43c5826d3dbd3226b92561d1ca3c522bc3de290665a846006015460405161092891815260200190565b60405180910390a3505061093c6001600055565b50565b600081815260026020818152604080842081516101008101835281546001600160a01b0381168252600160a01b900460ff1615159381019390935260018101549183019190915291820154606080830191909152600383015460808301526004830180549193859392909160a08401916109b8906120fb565b80601f01602080910402602001604051908101604052809291908181526020018280546109e4906120fb565b8015610a315780601f10610a0657610100808354040283529160200191610a31565b820191906000526020600020905b815481529060010190602001808311610a1457829003601f168201915b5050509183525050600582015460209091019060ff166003811115610a5857610a58611fb4565b6003811115610a6957610a69611fb4565b81526006919091015460209091015280519091506001600160a01b0316610abd5760006040518060400160405280600e81526020016d11da599d081b9bdd08199bdd5b9960921b8152509250925050915091565b60028160c001516003811115610ad557610ad5611fb4565b03610b135760006040518060400160405280601481526020017311da599d08185b1c9958591e4818db185a5b595960621b8152509250925050915091565b60038160c001516003811115610b2b57610b2b611fb4565b03610b635760006040518060400160405280600e81526020016d11da599d081c9958db185a5b595960921b8152509250925050915091565b60018160c001516003811115610b7b57610b7b611fb4565b14610bba5760006040518060400160405280601581526020017411da599d08185b1c9958591e481c995919595b5959605a1b8152509250925050915091565b60016040518060400160405280600a81526020016915985b1a590819da599d60b21b8152509250925050915091565b610bf1611ad8565b600081815260026020526040902080546001600160a01b0316610c2757604051631862cfe960e01b815260040160405180910390fd5b8060030154600003610c4c57604051637151516360e11b815260040160405180910390fd5b6001600582015460ff166003811115610c6757610c67611fb4565b14610c855760405163095a27af60e21b815260040160405180910390fd5b4281600101541015610caa5760405163e588b00760e01b815260040160405180910390fd5b33604051602001610cbb91906120de565b60405160208183030381529060405280519060200120816006015403610cf457604051630130f5ad60e31b815260040160405180910390fd5b60058101805460ff191660021790558054600160a01b60ff60a01b1982161782556003820154610d2f916001600160a01b0316903390611b6f565b336001600160a01b0316827f5fa3f9e7544621698efa9f5cc7b1671d9b5c3c6cf35527e0553e77fa0faa67f88360030154604051610d8e9181526040602082018190526007908201526610d3105253515160ca1b606082015260800190565b60405180910390a35061093c6001600055565b333014610dc157604051633f04a41560e01b815260040160405180910390fd5b60005b888110156111585742888883818110610ddf57610ddf61227a565b9050602002013511610e04576040516304e9683960e21b815260040160405180910390fd5b6003868683818110610e1857610e1861227a565b9050602002810190610e2a9190612290565b90501080610e5d57506032868683818110610e4757610e4761227a565b9050602002810190610e599190612290565b9050115b15610e7b5760405163312181a360e21b815260040160405180910390fd5b60026000858584818110610e9157610e9161227a565b90506020020135815260200190815260200160002060020154600014610eca5760405163012163ef60e11b815260040160405180910390fd5b898982818110610edc57610edc61227a565b90506020020135600360008481526020019081526020016000206000828254610f0591906122d6565b909155505060408051610100810182526001600160a01b038d16815260006020820152908101898984818110610f3d57610f3d61227a565b9050602002013581526020014281526020018b8b84818110610f6157610f6161227a565b905060200201358152602001878784818110610f7f57610f7f61227a565b9050602002810190610f919190612290565b8080601f0160208091040260200160405190810160405280939291908181526020018383808284376000920191909152505050908252506020016001815260200183905260026000868685818110610feb57610feb61227a565b6020908102929092013583525081810192909252604090810160002083518154938501511515600160a01b026001600160a81b03199094166001600160a01b03909116179290921782558201516001820155606082015160028201556080820151600382015560a082015160048201906110659082612183565b5060c082015160058201805460ff1916600183600381111561108957611089611fb4565b021790555060e082015181600601559050508a6001600160a01b0316828585848181106110b8576110b861227a565b905060200201357ffc007ae3f08ac6d013bf8e2d0783d44a7f8ed16433190293618d9ee28f734aed8989868181106110f2576110f261227a565b90506020028101906111049190612290565b8f8f888181106111165761111661227a565b905060200201358e8e8981811061112f5761112f61227a565b9050602002013542604051611148959493929190612312565b60405180910390a4600101610dc4565b5050505050505050505050565b6004602052600090815260409020805460018201546002830180546001600160a01b0393841694929093169261119a906120fb565b80601f01602080910402602001604051908101604052809291908181526020018280546111c6906120fb565b80156112135780601f106111e857610100808354040283529160200191611213565b820191906000526020600020905b8154815290600101906020018083116111f657829003601f168201915b505050505090806003018054611228906120fb565b80601f0160208091040260200160405190810160405280929190818152602001828054611254906120fb565b80156112a15780601f10611276576101008083540402835291602001916112a1565b820191906000526020600020905b81548152906001019060200180831161128457829003601f168201915b505050506004830154600584015460068501546007909501549394919390925060ff1688565b60058810156112e95760405163433f120b60e01b815260040160405180910390fd5b87861415806112f85750878414155b806113035750878214155b1561132157604051634456f5e960e11b815260040160405180910390fd5b803360405160200161133391906120de565b604051602081830303815290604052805190602001201461136757604051630617762360e51b815260040160405180910390fd5b6001600160a01b038a1661138e57604051635963709b60e01b815260040160405180910390fd5b896000805b8a8110156114025760008c8c838181106113af576113af61227a565b90506020020135116113d45760405163fae8279160e01b815260040160405180910390fd5b8b8b828181106113e6576113e661227a565b90506020020135826113f891906120c5565b9150600101611393565b506040516323b872dd60e01b8152336004820152306024820152604481018290526001600160a01b038316906323b872dd906064016020604051808303816000875af1158015611456573d6000803e3d6000fd5b505050506040513d601f19601f8201168201806040525081019061147a919061236a565b61149757604051631fa55c0760e11b815260040160405180910390fd5b6000838152600360205260409081902082905551639e85dad960e01b81523090639e85dad9906114dd908f908f908f908f908f908f908f908f908f908f906004016123c5565b600060405180830381600087803b1580156114f757600080fd5b505af1925050508015611508575060015b61155d576000838152600360205260409020548015611544576000848152600360205260408120556115446001600160a01b0384163383611b6f565b6040516303f777b760e21b815260040160405180910390fd5b5050600090815260036020526040812055505050505050505050565b6002602081905260009182526040909120805460018201549282015460038301546004840180546001600160a01b03851696600160a01b90950460ff169591906115c2906120fb565b80601f01602080910402602001604051908101604052809291908181526020018280546115ee906120fb565b801561163b5780601f106116105761010080835404028352916020019161163b565b820191906000526020600020905b81548152906001019060200180831161161e57829003601f168201915b505050506005830154600690930154919260ff1691905088565b61165d611ad8565b600081815260026020526040902080546001600160a01b031661169357604051630615b0ed60e41b815260040160405180910390fd5b8060060154336040516020016116a991906120de565b60405160208183030381529060405280519060200120146116dd57604051633c68288f60e01b815260040160405180910390fd5b6002600582015460ff1660038111156116f8576116f8611fb4565b03611716576040516388e8ca6560e01b815260040160405180910390fd5b6003600582015460ff16600381111561173157611731611fb4565b0361174f57604051631102656960e11b815260040160405180910390fd5b80600101544211611773576040516308dbecb960e11b815260040160405180910390fd5b60058101805460ff191660039081179091558154600160a01b60ff60a01b198216178355908201546117b0916001600160a01b0316903390611b6f565b336001600160a01b0316827f285a507b21ee662f44aa4ce8b5b57ed14c3beecede75c04bea30e8ce14a2e7768360030154604051610d8e91815260406020820181905260099082015268149150d3105253515160ba1b606082015260800190565b6001546001600160a01b0316331461183c5760405163984ab90960e01b815260040160405180910390fd5b6001600160a01b03861661186357604051635963709b60e01b815260040160405180910390fd5b600085116118845760405163fae8279160e01b815260040160405180910390fd5b4284116118a4576040516304e9683960e21b815260040160405180910390fd5b6003835110806118b5575060328351115b156118d35760405163312181a360e21b815260040160405180910390fd5b60008281526002602081905260409091200154156119045760405163012163ef60e11b815260040160405180910390fd5b6040516323b872dd60e01b81523360048201523060248201526044810186905286906001600160a01b038216906323b872dd906064016020604051808303816000875af1158015611959573d6000803e3d6000fd5b505050506040513d601f19601f8201168201806040525081019061197d919061236a565b61199a57604051631fa55c0760e11b815260040160405180910390fd5b60408051610100810182526001600160a01b0389168152600060208201529081018690524260608201526080810187905260a0810185905260c081016001815260209081018490526000858152600280835260409182902084518154948601511515600160a01b026001600160a81b03199095166001600160a01b03909116179390931783559083015160018301556060830151908201556080820151600382015560a08201516004820190611a509082612183565b5060c082015160058201805460ff19166001836003811115611a7457611a74611fb4565b021790555060e08201518160060155905050866001600160a01b031682847ffc007ae3f08ac6d013bf8e2d0783d44a7f8ed16433190293618d9ee28f734aed878a8a42604051611ac794939291906124c4565b60405180910390a450505050505050565b600260005403611afb57604051633ee5aeb560e01b815260040160405180910390fd5b6002600055565b6040516001600160a01b038481166024830152838116604483015260648201839052611b699186918216906323b872dd906084015b604051602081830303815290604052915060e01b6020820180516001600160e01b038381831617835250505050611ba5565b50505050565b6040516001600160a01b03838116602483015260448201839052611ba091859182169063a9059cbb90606401611b37565b505050565b600080602060008451602086016000885af180611bc8576040513d6000823e3d81fd5b50506000513d91508115611be0578060011415611bed565b6001600160a01b0384163b155b15611b6957604051635274afe760e01b81526001600160a01b038516600482015260240160405180910390fd5b60008060408385031215611c2d57600080fd5b50508035926020909101359150565b634e487b7160e01b600052604160045260246000fd5b600082601f830112611c6357600080fd5b81356001600160401b03811115611c7c57611c7c611c3c565b604051601f8201601f19908116603f011681016001600160401b0381118282101715611caa57611caa611c3c565b604052818152838201602001851015611cc257600080fd5b816020850160208301376000918101602001919091529392505050565b80356001600160a01b0381168114611cf657600080fd5b919050565b60008060008060008060c08789031215611d1457600080fd5b86356001600160401b03811115611d2a57600080fd5b611d3689828a01611c52565b96505060208701356001600160401b03811115611d5257600080fd5b611d5e89828a01611c52565b955050611d6d60408801611cdf565b959894975094956060810135955060808101359460a0909101359350915050565b600060208284031215611da057600080fd5b5035919050565b6000815180845260005b81811015611dcd57602081850181015186830182015201611db1565b506000602082860101526020601f19601f83011685010191505092915050565b6001600160a01b0389811682528816602082015261010060408201819052600090611e1a90830189611da7565b8281036060840152611e2c8189611da7565b9150508560808301528460a08301528360c083015282151560e08301529998505050505050505050565b8215158152604060208201526000611e716040830184611da7565b949350505050565b60008083601f840112611e8b57600080fd5b5081356001600160401b03811115611ea257600080fd5b6020830191508360208260051b8501011115611ebd57600080fd5b9250929050565b60008060008060008060008060008060c08b8d031215611ee357600080fd5b611eec8b611cdf565b995060208b01356001600160401b03811115611f0757600080fd5b611f138d828e01611e79565b909a5098505060408b01356001600160401b03811115611f3257600080fd5b611f3e8d828e01611e79565b90985096505060608b01356001600160401b03811115611f5d57600080fd5b611f698d828e01611e79565b90965094505060808b01356001600160401b03811115611f8857600080fd5b611f948d828e01611e79565b9b9e9a9d50989b979a96999598949794969560a090950135949350505050565b634e487b7160e01b600052602160045260246000fd5b60018060a01b0389168152871515602082015286604082015285606082015284608082015261010060a08201526000612007610100830186611da7565b90506004841061202757634e487b7160e01b600052602160045260246000fd5b60c082019390935260e001529695505050505050565b60008060008060008060c0878903121561205657600080fd5b61205f87611cdf565b9550602087013594506040870135935060608701356001600160401b0381111561208857600080fd5b61209489828a01611c52565b9699959850939660808101359560a090910135945092505050565b634e487b7160e01b600052601160045260246000fd5b808201808211156120d8576120d86120af565b92915050565b60609190911b6bffffffffffffffffffffffff1916815260140190565b600181811c9082168061210f57607f821691505b60208210810361212f57634e487b7160e01b600052602260045260246000fd5b50919050565b601f821115611ba057806000526020600020601f840160051c8101602085101561215c5750805b601f840160051c820191505b8181101561217c5760008155600101612168565b5050505050565b81516001600160401b0381111561219c5761219c611c3c565b6121b0816121aa84546120fb565b84612135565b6020601f8211600181146121e457600083156121cc5750848201515b600019600385901b1c1916600184901b17845561217c565b600084815260208120601f198516915b8281101561221457878501518255602094850194600190920191016121f4565b50848210156122325786840151600019600387901b60f8161c191681555b50505050600190811b01905550565b6080815260006122546080830187611da7565b82810360208401526122668187611da7565b604084019590955250506060015292915050565b634e487b7160e01b600052603260045260246000fd5b6000808335601e198436030181126122a757600080fd5b8301803591506001600160401b038211156122c157600080fd5b602001915036819003821315611ebd57600080fd5b818103818111156120d8576120d86120af565b81835281816020850137506000828201602090810191909152601f909101601f19169091010190565b60a08152600061232660a0830187896122e9565b856020840152846040840152836060840152828103608084015261235e81600781526650454e44494e4760c81b602082015260400190565b98975050505050505050565b60006020828403121561237c57600080fd5b8151801515811461238c57600080fd5b9392505050565b81835260006001600160fb1b038311156123ac57600080fd5b8260051b80836020870137939093016020019392505050565b6001600160a01b038b16815260c0602082018190526000906123ea9083018b8d612393565b82810360408401526123fd818a8c612393565b83810360608501528781529050602080820190600589901b83010189600036829003601e19015b8b82101561249457858403601f19018552823581811261244357600080fd5b8d016020810190356001600160401b0381111561245f57600080fd5b80360382131561246e57600080fd5b6124798682846122e9565b95505050602083019250602085019450600182019150612424565b50505084810360808601526124aa81888a612393565b93505050508260a08301529b9a5050505050505050505050565b60a0815260006124d760a0830187611da7565b856020840152846040840152836060840152828103608084015261250f81600781526650454e44494e4760c81b602082015260400190565b97965050505050505056fea264697066735822122071c8fdc11d14e769bde4563c7f1611779a2a5f1dc58a5e7764d3c2f631be462664736f6c634300081c0033","opcodes":"PUSH1 0x80 PUSH1 0x40 MSTORE CALLVALUE DUP1 ISZERO PUSH1 0xF JUMPI PUSH1 0x0 DUP1 REVERT JUMPDEST POP PUSH1 0x40 MLOAD PUSH2 0x25E2 CODESIZE SUB DUP1 PUSH2 0x25E2 DUP4 CODECOPY DUP2 ADD PUSH1 0x40 DUP2 SWAP1 MSTORE PUSH1 0x2C SWAP2 PUSH1 0x55 JUMP JUMPDEST PUSH1 0x1 PUSH1 0x0 DUP2 SWAP1 SSTORE DUP1 SLOAD PUSH1 0x1 PUSH1 0x1 PUSH1 0xA0 SHL SUB NOT AND PUSH1 0x1 PUSH1 0x1 PUSH1 0xA0 SHL SUB SWAP3 SWAP1 SWAP3 AND SWAP2 SWAP1 SWAP2 OR SWAP1 SSTORE PUSH1 0x83 JUMP JUMPDEST PUSH1 0x0 PUSH1 0x20 DUP3 DUP5 SUB SLT ISZERO PUSH1 0x66 JUMPI PUSH1 0x0 DUP1 REVERT JUMPDEST DUP2 MLOAD PUSH1 0x1 PUSH1 0x1 PUSH1 0xA0 SHL SUB DUP2 AND DUP2 EQ PUSH1 0x7C JUMPI PUSH1 0x0 DUP1 REVERT JUMPDEST SWAP4 SWAP3 POP POP POP JUMP JUMPDEST PUSH2 0x2550 DUP1 PUSH2 0x92 PUSH1 0x0 CODECOPY PUSH1 0x0 RETURN INVALID PUSH1 0x80 PUSH1 0x40 MSTORE CALLVALUE DUP1 ISZERO PUSH2 0x10 JUMPI PUSH1 0x0 DUP1 REVERT JUMPDEST POP PUSH1 0x4 CALLDATASIZE LT PUSH2 0xB4 JUMPI PUSH1 0x0 CALLDATALOAD PUSH1 0xE0 SHR DUP1 PUSH4 0x9E85DAD9 GT PUSH2 0x71 JUMPI DUP1 PUSH4 0x9E85DAD9 EQ PUSH2 0x158 JUMPI DUP1 PUSH4 0x9ECA2F1E EQ PUSH2 0x16B JUMPI DUP1 PUSH4 0xB0A1AE00 EQ PUSH2 0x17E JUMPI DUP1 PUSH4 0xDA138E12 EQ PUSH2 0x191 JUMPI DUP1 PUSH4 0xEC2DE8C1 EQ PUSH2 0x1B8 JUMPI DUP1 PUSH4 0xFD7A1E0B EQ PUSH2 0x1CB JUMPI PUSH1 0x0 DUP1 REVERT JUMPDEST DUP1 PUSH4 0x1222B05D EQ PUSH2 0xB9 JUMPI DUP1 PUSH4 0x2CCCC4C4 EQ PUSH2 0xCE JUMPI DUP1 PUSH4 0x5F55E1A6 EQ PUSH2 0xE1 JUMPI DUP1 PUSH4 0x913AFBA5 EQ PUSH2 0x111 JUMPI DUP1 PUSH4 0x957B8610 EQ PUSH2 0x124 JUMPI DUP1 PUSH4 0x9617CFF5 EQ PUSH2 0x145 JUMPI JUMPDEST PUSH1 0x0 DUP1 REVERT JUMPDEST PUSH2 0xCC PUSH2 0xC7 CALLDATASIZE PUSH1 0x4 PUSH2 0x1C1A JUMP JUMPDEST PUSH2 0x1DE JUMP JUMPDEST STOP JUMPDEST PUSH2 0xCC PUSH2 0xDC CALLDATASIZE PUSH1 0x4 PUSH2 0x1CFB JUMP JUMPDEST PUSH2 0x386 JUMP JUMPDEST PUSH2 0xF4 PUSH2 0xEF CALLDATASIZE PUSH1 0x4 PUSH2 0x1D8E JUMP JUMPDEST PUSH2 0x5A1 JUMP JUMPDEST PUSH1 0x40 MLOAD PUSH2 0x108 SWAP9 SWAP8 SWAP7 SWAP6 SWAP5 SWAP4 SWAP3 SWAP2 SWAP1 PUSH2 0x1DED JUMP JUMPDEST PUSH1 0x40 MLOAD DUP1 SWAP2 SUB SWAP1 RETURN JUMPDEST PUSH2 0xCC PUSH2 0x11F CALLDATASIZE PUSH1 0x4 PUSH2 0x1D8E JUMP JUMPDEST PUSH2 0x7B1 JUMP JUMPDEST PUSH2 0x137 PUSH2 0x132 CALLDATASIZE PUSH1 0x4 PUSH2 0x1D8E JUMP JUMPDEST PUSH2 0x93F JUMP JUMPDEST PUSH1 0x40 MLOAD PUSH2 0x108 SWAP3 SWAP2 SWAP1 PUSH2 0x1E56 JUMP JUMPDEST PUSH2 0xCC PUSH2 0x153 CALLDATASIZE PUSH1 0x4 PUSH2 0x1D8E JUMP JUMPDEST PUSH2 0xBE9 JUMP JUMPDEST PUSH2 0xCC PUSH2 0x166 CALLDATASIZE PUSH1 0x4 PUSH2 0x1EC4 JUMP JUMPDEST PUSH2 0xDA1 JUMP JUMPDEST PUSH2 0xF4 PUSH2 0x179 CALLDATASIZE PUSH1 0x4 PUSH2 0x1D8E JUMP JUMPDEST PUSH2 0x1165 JUMP JUMPDEST PUSH2 0xCC PUSH2 0x18C CALLDATASIZE PUSH1 0x4 PUSH2 0x1EC4 JUMP JUMPDEST PUSH2 0x12C7 JUMP JUMPDEST PUSH2 0x1A4 PUSH2 0x19F CALLDATASIZE PUSH1 0x4 PUSH2 0x1D8E JUMP JUMPDEST PUSH2 0x1579 JUMP JUMPDEST PUSH1 0x40 MLOAD PUSH2 0x108 SWAP9 SWAP8 SWAP7 SWAP6 SWAP5 SWAP4 SWAP3 SWAP2 SWAP1 PUSH2 0x1FCA JUMP JUMPDEST PUSH2 0xCC PUSH2 0x1C6 CALLDATASIZE PUSH1 0x4 PUSH2 0x1D8E JUMP JUMPDEST PUSH2 0x1655 JUMP JUMPDEST PUSH2 0xCC PUSH2 0x1D9 CALLDATASIZE PUSH1 0x4 PUSH2 0x203D JUMP JUMPDEST PUSH2 0x1811 JUMP JUMPDEST PUSH2 0x1E6 PUSH2 0x1AD8 JUMP JUMPDEST PUSH1 0x0 DUP3 DUP2 MSTORE PUSH1 0x4 PUSH1 0x20 MSTORE PUSH1 0x40 SWAP1 KECCAK256 DUP1 SLOAD PUSH1 0x1 PUSH1 0x1 PUSH1 0xA0 SHL SUB AND PUSH2 0x21C JUMPI PUSH1 0x40 MLOAD PUSH4 0x6DF1127B PUSH1 0xE1 SHL DUP2 MSTORE PUSH1 0x4 ADD PUSH1 0x40 MLOAD DUP1 SWAP2 SUB SWAP1 REVERT JUMPDEST DUP1 PUSH1 0x5 ADD SLOAD TIMESTAMP GT ISZERO PUSH2 0x241 JUMPI PUSH1 0x40 MLOAD PUSH4 0x1416CD83 PUSH1 0xE0 SHL DUP2 MSTORE PUSH1 0x4 ADD PUSH1 0x40 MLOAD DUP1 SWAP2 SUB SWAP1 REVERT JUMPDEST DUP2 PUSH1 0x0 SUB PUSH2 0x262 JUMPI PUSH1 0x40 MLOAD PUSH4 0xFAE82791 PUSH1 0xE0 SHL DUP2 MSTORE PUSH1 0x4 ADD PUSH1 0x40 MLOAD DUP1 SWAP2 SUB SWAP1 REVERT JUMPDEST DUP1 PUSH1 0x4 ADD SLOAD DUP3 DUP3 PUSH1 0x6 ADD SLOAD PUSH2 0x277 SWAP2 SWAP1 PUSH2 0x20C5 JUMP JUMPDEST GT ISZERO PUSH2 0x296 JUMPI PUSH1 0x40 MLOAD PUSH4 0x8C52277B PUSH1 0xE0 SHL DUP2 MSTORE PUSH1 0x4 ADD PUSH1 0x40 MLOAD DUP1 SWAP2 SUB SWAP1 REVERT JUMPDEST PUSH1 0x1 DUP2 ADD SLOAD PUSH1 0x1 PUSH1 0x1 PUSH1 0xA0 SHL SUB AND PUSH2 0x2B0 DUP2 CALLER ADDRESS DUP7 PUSH2 0x1B02 JUMP JUMPDEST DUP3 DUP3 PUSH1 0x6 ADD PUSH1 0x0 DUP3 DUP3 SLOAD PUSH2 0x2C4 SWAP2 SWAP1 PUSH2 0x20C5 JUMP JUMPDEST SWAP1 SWAP2 SSTORE POP POP PUSH1 0x40 MLOAD DUP4 DUP2 MSTORE CALLER SWAP1 DUP6 SWAP1 PUSH32 0x3C0EFF4F142CBCE74BCCFC168392C83A24F470999E24CEF8AE1558FB729EFFA8 SWAP1 PUSH1 0x20 ADD PUSH1 0x40 MLOAD DUP1 SWAP2 SUB SWAP1 LOG3 PUSH1 0x1 DUP3 ADD SLOAD DUP3 SLOAD PUSH1 0x40 MLOAD PUSH1 0x1 PUSH1 0x1 PUSH1 0xA0 SHL SUB SWAP3 DUP4 AND SWAP3 CALLER SWAP3 PUSH2 0x327 SWAP3 SWAP2 AND SWAP1 PUSH1 0x20 ADD PUSH2 0x20DE JUMP JUMPDEST PUSH1 0x40 MLOAD PUSH1 0x20 DUP2 DUP4 SUB SUB DUP2 MSTORE SWAP1 PUSH1 0x40 MSTORE DUP1 MLOAD SWAP1 PUSH1 0x20 ADD KECCAK256 PUSH32 0x21194F8BEE8E92F2AD0F11B9AF467089BDDA3501A6551045D7D0925790097AE1 DUP7 PUSH1 0x40 MLOAD PUSH2 0x36E SWAP2 DUP2 MSTORE PUSH1 0x20 ADD SWAP1 JUMP JUMPDEST PUSH1 0x40 MLOAD DUP1 SWAP2 SUB SWAP1 LOG4 POP POP PUSH2 0x382 PUSH1 0x1 PUSH1 0x0 SSTORE JUMP JUMPDEST POP POP JUMP JUMPDEST DUP6 MLOAD PUSH1 0x0 SUB PUSH2 0x3A8 JUMPI PUSH1 0x40 MLOAD PUSH4 0x5D99DB27 PUSH1 0xE1 SHL DUP2 MSTORE PUSH1 0x4 ADD PUSH1 0x40 MLOAD DUP1 SWAP2 SUB SWAP1 REVERT JUMPDEST DUP5 MLOAD ISZERO DUP1 PUSH2 0x3B7 JUMPI POP PUSH1 0x32 DUP6 MLOAD GT JUMPDEST ISZERO PUSH2 0x3D5 JUMPI PUSH1 0x40 MLOAD PUSH4 0x5FD10AAD PUSH1 0xE0 SHL DUP2 MSTORE PUSH1 0x4 ADD PUSH1 0x40 MLOAD DUP1 SWAP2 SUB SWAP1 REVERT JUMPDEST DUP3 PUSH1 0x0 SUB PUSH2 0x3F6 JUMPI PUSH1 0x40 MLOAD PUSH4 0xFAE82791 PUSH1 0xE0 SHL DUP2 MSTORE PUSH1 0x4 ADD PUSH1 0x40 MLOAD DUP1 SWAP2 SUB SWAP1 REVERT JUMPDEST TIMESTAMP DUP3 GT PUSH2 0x416 JUMPI PUSH1 0x40 MLOAD PUSH4 0x4E96839 PUSH1 0xE2 SHL DUP2 MSTORE PUSH1 0x4 ADD PUSH1 0x40 MLOAD DUP1 SWAP2 SUB SWAP1 REVERT JUMPDEST PUSH1 0x0 DUP2 DUP2 MSTORE PUSH1 0x4 PUSH1 0x20 MSTORE PUSH1 0x40 SWAP1 KECCAK256 SLOAD PUSH1 0x1 PUSH1 0x1 PUSH1 0xA0 SHL SUB AND ISZERO PUSH2 0x44C JUMPI PUSH1 0x40 MLOAD PUSH4 0x2B1FDF71 PUSH1 0xE1 SHL DUP2 MSTORE PUSH1 0x4 ADD PUSH1 0x40 MLOAD DUP1 SWAP2 SUB SWAP1 REVERT JUMPDEST PUSH1 0x1 PUSH1 0x1 PUSH1 0xA0 SHL SUB DUP5 AND PUSH2 0x473 JUMPI PUSH1 0x40 MLOAD PUSH4 0x5963709B PUSH1 0xE0 SHL DUP2 MSTORE PUSH1 0x4 ADD PUSH1 0x40 MLOAD DUP1 SWAP2 SUB SWAP1 REVERT JUMPDEST PUSH1 0x40 DUP1 MLOAD PUSH2 0x100 DUP2 ADD DUP3 MSTORE CALLER DUP2 MSTORE PUSH1 0x1 PUSH1 0x1 PUSH1 0xA0 SHL SUB DUP7 DUP2 AND PUSH1 0x20 DUP1 DUP5 ADD SWAP2 DUP3 MSTORE DUP4 DUP6 ADD DUP12 DUP2 MSTORE PUSH1 0x60 DUP6 ADD DUP12 SWAP1 MSTORE PUSH1 0x80 DUP6 ADD DUP10 SWAP1 MSTORE PUSH1 0xA0 DUP6 ADD DUP9 SWAP1 MSTORE PUSH1 0x0 PUSH1 0xC0 DUP7 ADD DUP2 SWAP1 MSTORE PUSH1 0xE0 DUP7 ADD DUP2 SWAP1 MSTORE DUP8 DUP2 MSTORE PUSH1 0x4 SWAP1 SWAP3 MSTORE SWAP5 SWAP1 KECCAK256 DUP4 MLOAD DUP2 SLOAD SWAP1 DUP5 AND PUSH1 0x1 PUSH1 0x1 PUSH1 0xA0 SHL SUB NOT SWAP2 DUP3 AND OR DUP3 SSTORE SWAP2 MLOAD PUSH1 0x1 DUP3 ADD DUP1 SLOAD SWAP2 SWAP1 SWAP5 AND SWAP3 AND SWAP2 SWAP1 SWAP2 OR SWAP1 SWAP2 SSTORE SWAP2 MLOAD SWAP1 SWAP2 SWAP1 PUSH1 0x2 DUP3 ADD SWAP1 PUSH2 0x509 SWAP1 DUP3 PUSH2 0x2183 JUMP JUMPDEST POP PUSH1 0x60 DUP3 ADD MLOAD PUSH1 0x3 DUP3 ADD SWAP1 PUSH2 0x51E SWAP1 DUP3 PUSH2 0x2183 JUMP JUMPDEST POP PUSH1 0x80 DUP3 ADD MLOAD PUSH1 0x4 DUP3 ADD SSTORE PUSH1 0xA0 DUP3 ADD MLOAD PUSH1 0x5 DUP3 ADD SSTORE PUSH1 0xC0 DUP3 ADD MLOAD PUSH1 0x6 DUP3 ADD SSTORE PUSH1 0xE0 SWAP1 SWAP2 ADD MLOAD PUSH1 0x7 SWAP1 SWAP2 ADD DUP1 SLOAD PUSH1 0xFF NOT AND SWAP2 ISZERO ISZERO SWAP2 SWAP1 SWAP2 OR SWAP1 SSTORE PUSH1 0x40 MLOAD CALLER SWAP1 DUP3 SWAP1 PUSH32 0x5E6DC7EE5607D4290FC831565A5D121CB33854FEC32062F59B1DAF0342A2F466 SWAP1 PUSH2 0x591 SWAP1 DUP11 SWAP1 DUP11 SWAP1 DUP10 SWAP1 DUP10 SWAP1 PUSH2 0x2241 JUMP JUMPDEST PUSH1 0x40 MLOAD DUP1 SWAP2 SUB SWAP1 LOG3 POP POP POP POP POP POP JUMP JUMPDEST PUSH1 0x0 DUP2 DUP2 MSTORE PUSH1 0x4 PUSH1 0x20 SWAP1 DUP2 MSTORE PUSH1 0x40 DUP1 DUP4 KECCAK256 DUP2 MLOAD PUSH2 0x100 DUP2 ADD DUP4 MSTORE DUP2 SLOAD PUSH1 0x1 PUSH1 0x1 PUSH1 0xA0 SHL SUB SWAP1 DUP2 AND DUP3 MSTORE PUSH1 0x1 DUP4 ADD SLOAD AND SWAP4 DUP2 ADD SWAP4 SWAP1 SWAP4 MSTORE PUSH1 0x2 DUP2 ADD DUP1 SLOAD DUP6 SWAP5 PUSH1 0x60 SWAP5 DUP6 SWAP5 DUP8 SWAP5 DUP6 SWAP5 DUP6 SWAP5 DUP6 SWAP5 DUP6 SWAP5 SWAP2 SWAP4 SWAP2 SWAP3 SWAP1 DUP5 ADD SWAP2 SWAP1 PUSH2 0x600 SWAP1 PUSH2 0x20FB JUMP JUMPDEST DUP1 PUSH1 0x1F ADD PUSH1 0x20 DUP1 SWAP2 DIV MUL PUSH1 0x20 ADD PUSH1 0x40 MLOAD SWAP1 DUP2 ADD PUSH1 0x40 MSTORE DUP1 SWAP3 SWAP2 SWAP1 DUP2 DUP2 MSTORE PUSH1 0x20 ADD DUP3 DUP1 SLOAD PUSH2 0x62C SWAP1 PUSH2 0x20FB JUMP JUMPDEST DUP1 ISZERO PUSH2 0x679 JUMPI DUP1 PUSH1 0x1F LT PUSH2 0x64E JUMPI PUSH2 0x100 DUP1 DUP4 SLOAD DIV MUL DUP4 MSTORE SWAP2 PUSH1 0x20 ADD SWAP2 PUSH2 0x679 JUMP JUMPDEST DUP3 ADD SWAP2 SWAP1 PUSH1 0x0 MSTORE PUSH1 0x20 PUSH1 0x0 KECCAK256 SWAP1 JUMPDEST DUP2 SLOAD DUP2 MSTORE SWAP1 PUSH1 0x1 ADD SWAP1 PUSH1 0x20 ADD DUP1 DUP4 GT PUSH2 0x65C JUMPI DUP3 SWAP1 SUB PUSH1 0x1F AND DUP3 ADD SWAP2 JUMPDEST POP POP POP POP POP DUP2 MSTORE PUSH1 0x20 ADD PUSH1 0x3 DUP3 ADD DUP1 SLOAD PUSH2 0x692 SWAP1 PUSH2 0x20FB JUMP JUMPDEST DUP1 PUSH1 0x1F ADD PUSH1 0x20 DUP1 SWAP2 DIV MUL PUSH1 0x20 ADD PUSH1 0x40 MLOAD SWAP1 DUP2 ADD PUSH1 0x40 MSTORE DUP1 SWAP3 SWAP2 SWAP1 DUP2 DUP2 MSTORE PUSH1 0x20 ADD DUP3 DUP1 SLOAD PUSH2 0x6BE SWAP1 PUSH2 0x20FB JUMP JUMPDEST DUP1 ISZERO PUSH2 0x70B JUMPI DUP1 PUSH1 0x1F LT PUSH2 0x6E0 JUMPI PUSH2 0x100 DUP1 DUP4 SLOAD DIV MUL DUP4 MSTORE SWAP2 PUSH1 0x20 ADD SWAP2 PUSH2 0x70B JUMP JUMPDEST DUP3 ADD SWAP2 SWAP1 PUSH1 0x0 MSTORE PUSH1 0x20 PUSH1 0x0 KECCAK256 SWAP1 JUMPDEST DUP2 SLOAD DUP2 MSTORE SWAP1 PUSH1 0x1 ADD SWAP1 PUSH1 0x20 ADD DUP1 DUP4 GT PUSH2 0x6EE JUMPI DUP3 SWAP1 SUB PUSH1 0x1F AND DUP3 ADD SWAP2 JUMPDEST POP POP POP SWAP2 DUP4 MSTORE POP POP PUSH1 0x4 DUP3 ADD SLOAD PUSH1 0x20 DUP3 ADD MSTORE PUSH1 0x5 DUP3 ADD SLOAD PUSH1 0x40 DUP3 ADD MSTORE PUSH1 0x6 DUP3 ADD SLOAD PUSH1 0x60 DUP3 ADD MSTORE PUSH1 0x7 SWAP1 SWAP2 ADD SLOAD PUSH1 0xFF AND ISZERO ISZERO PUSH1 0x80 SWAP1 SWAP2 ADD MSTORE DUP1 MLOAD SWAP1 SWAP2 POP PUSH1 0x1 PUSH1 0x1 PUSH1 0xA0 SHL SUB AND PUSH2 0x76D JUMPI PUSH1 0x40 MLOAD PUSH4 0x6DF1127B PUSH1 0xE1 SHL DUP2 MSTORE PUSH1 0x4 ADD PUSH1 0x40 MLOAD DUP1 SWAP2 SUB SWAP1 REVERT JUMPDEST DUP1 PUSH1 0x0 ADD MLOAD DUP2 PUSH1 0x20 ADD MLOAD DUP3 PUSH1 0x40 ADD MLOAD DUP4 PUSH1 0x60 ADD MLOAD DUP5 PUSH1 0x80 ADD MLOAD DUP6 PUSH1 0xA0 ADD MLOAD DUP7 PUSH1 0xC0 ADD MLOAD DUP8 PUSH1 0xE0 ADD MLOAD SWAP9 POP SWAP9 POP SWAP9 POP SWAP9 POP SWAP9 POP SWAP9 POP SWAP9 POP SWAP9 POP POP SWAP2 SWAP4 SWAP6 SWAP8 POP SWAP2 SWAP4 SWAP6 SWAP8 JUMP JUMPDEST PUSH2 0x7B9 PUSH2 0x1AD8 JUMP JUMPDEST PUSH1 0x0 DUP2 DUP2 MSTORE PUSH1 0x4 PUSH1 0x20 MSTORE PUSH1 0x40 SWAP1 KECCAK256 DUP1 SLOAD PUSH1 0x1 PUSH1 0x1 PUSH1 0xA0 SHL SUB AND PUSH2 0x7EF JUMPI PUSH1 0x40 MLOAD PUSH4 0x6DF1127B PUSH1 0xE1 SHL DUP2 MSTORE PUSH1 0x4 ADD PUSH1 0x40 MLOAD DUP1 SWAP2 SUB SWAP1 REVERT JUMPDEST DUP1 SLOAD PUSH1 0x1 PUSH1 0x1 PUSH1 0xA0 SHL SUB AND CALLER EQ PUSH2 0x819 JUMPI PUSH1 0x40 MLOAD PUSH4 0x1BE85545 PUSH1 0xE1 SHL DUP2 MSTORE PUSH1 0x4 ADD PUSH1 0x40 MLOAD DUP1 SWAP2 SUB SWAP1 REVERT JUMPDEST DUP1 PUSH1 0x5 ADD SLOAD TIMESTAMP GT PUSH2 0x83D JUMPI PUSH1 0x40 MLOAD PUSH4 0x966C9875 PUSH1 0xE0 SHL DUP2 MSTORE PUSH1 0x4 ADD PUSH1 0x40 MLOAD DUP1 SWAP2 SUB SWAP1 REVERT JUMPDEST PUSH1 0x7 DUP2 ADD SLOAD PUSH1 0xFF AND ISZERO PUSH2 0x863 JUMPI PUSH1 0x40 MLOAD PUSH4 0x6BC365A5 PUSH1 0xE1 SHL DUP2 MSTORE PUSH1 0x4 ADD PUSH1 0x40 MLOAD DUP1 SWAP2 SUB SWAP1 REVERT JUMPDEST DUP1 PUSH1 0x6 ADD SLOAD PUSH1 0x0 SUB PUSH2 0x888 JUMPI PUSH1 0x40 MLOAD PUSH4 0xE4E22ECB PUSH1 0xE0 SHL DUP2 MSTORE PUSH1 0x4 ADD PUSH1 0x40 MLOAD DUP1 SWAP2 SUB SWAP1 REVERT JUMPDEST PUSH1 0x7 DUP2 ADD DUP1 SLOAD PUSH1 0xFF NOT AND PUSH1 0x1 SWAP1 DUP2 OR SWAP1 SWAP2 SSTORE DUP2 ADD SLOAD DUP2 SLOAD PUSH1 0x6 DUP4 ADD SLOAD PUSH1 0x1 PUSH1 0x1 PUSH1 0xA0 SHL SUB SWAP3 DUP4 AND SWAP3 PUSH2 0x8BE SWAP3 DUP5 SWAP3 SWAP2 AND SWAP1 PUSH2 0x1B6F JUMP JUMPDEST DUP2 SLOAD PUSH1 0x40 MLOAD CALLER SWAP2 PUSH2 0x8DD SWAP2 PUSH1 0x1 PUSH1 0x1 PUSH1 0xA0 SHL SUB SWAP1 SWAP2 AND SWAP1 PUSH1 0x20 ADD PUSH2 0x20DE JUMP JUMPDEST PUSH1 0x40 MLOAD PUSH1 0x20 DUP2 DUP4 SUB SUB DUP2 MSTORE SWAP1 PUSH1 0x40 MSTORE DUP1 MLOAD SWAP1 PUSH1 0x20 ADD KECCAK256 PUSH32 0xF791E57E3858E95F6AB3A43C5826D3DBD3226B92561D1CA3C522BC3DE290665A DUP5 PUSH1 0x6 ADD SLOAD PUSH1 0x40 MLOAD PUSH2 0x928 SWAP2 DUP2 MSTORE PUSH1 0x20 ADD SWAP1 JUMP JUMPDEST PUSH1 0x40 MLOAD DUP1 SWAP2 SUB SWAP1 LOG3 POP POP PUSH2 0x93C PUSH1 0x1 PUSH1 0x0 SSTORE JUMP JUMPDEST POP JUMP JUMPDEST PUSH1 0x0 DUP2 DUP2 MSTORE PUSH1 0x2 PUSH1 0x20 DUP2 DUP2 MSTORE PUSH1 0x40 DUP1 DUP5 KECCAK256 DUP2 MLOAD PUSH2 0x100 DUP2 ADD DUP4 MSTORE DUP2 SLOAD PUSH1 0x1 PUSH1 0x1 PUSH1 0xA0 SHL SUB DUP2 AND DUP3 MSTORE PUSH1 0x1 PUSH1 0xA0 SHL SWAP1 DIV PUSH1 0xFF AND ISZERO ISZERO SWAP4 DUP2 ADD SWAP4 SWAP1 SWAP4 MSTORE PUSH1 0x1 DUP2 ADD SLOAD SWAP2 DUP4 ADD SWAP2 SWAP1 SWAP2 MSTORE SWAP2 DUP3 ADD SLOAD PUSH1 0x60 DUP1 DUP4 ADD SWAP2 SWAP1 SWAP2 MSTORE PUSH1 0x3 DUP4 ADD SLOAD PUSH1 0x80 DUP4 ADD MSTORE PUSH1 0x4 DUP4 ADD DUP1 SLOAD SWAP2 SWAP4 DUP6 SWAP4 SWAP3 SWAP1 SWAP2 PUSH1 0xA0 DUP5 ADD SWAP2 PUSH2 0x9B8 SWAP1 PUSH2 0x20FB JUMP JUMPDEST DUP1 PUSH1 0x1F ADD PUSH1 0x20 DUP1 SWAP2 DIV MUL PUSH1 0x20 ADD PUSH1 0x40 MLOAD SWAP1 DUP2 ADD PUSH1 0x40 MSTORE DUP1 SWAP3 SWAP2 SWAP1 DUP2 DUP2 MSTORE PUSH1 0x20 ADD DUP3 DUP1 SLOAD PUSH2 0x9E4 SWAP1 PUSH2 0x20FB JUMP JUMPDEST DUP1 ISZERO PUSH2 0xA31 JUMPI DUP1 PUSH1 0x1F LT PUSH2 0xA06 JUMPI PUSH2 0x100 DUP1 DUP4 SLOAD DIV MUL DUP4 MSTORE SWAP2 PUSH1 0x20 ADD SWAP2 PUSH2 0xA31 JUMP JUMPDEST DUP3 ADD SWAP2 SWAP1 PUSH1 0x0 MSTORE PUSH1 0x20 PUSH1 0x0 KECCAK256 SWAP1 JUMPDEST DUP2 SLOAD DUP2 MSTORE SWAP1 PUSH1 0x1 ADD SWAP1 PUSH1 0x20 ADD DUP1 DUP4 GT PUSH2 0xA14 JUMPI DUP3 SWAP1 SUB PUSH1 0x1F AND DUP3 ADD SWAP2 JUMPDEST POP POP POP SWAP2 DUP4 MSTORE POP POP PUSH1 0x5 DUP3 ADD SLOAD PUSH1 0x20 SWAP1 SWAP2 ADD SWAP1 PUSH1 0xFF AND PUSH1 0x3 DUP2 GT ISZERO PUSH2 0xA58 JUMPI PUSH2 0xA58 PUSH2 0x1FB4 JUMP JUMPDEST PUSH1 0x3 DUP2 GT ISZERO PUSH2 0xA69 JUMPI PUSH2 0xA69 PUSH2 0x1FB4 JUMP JUMPDEST DUP2 MSTORE PUSH1 0x6 SWAP2 SWAP1 SWAP2 ADD SLOAD PUSH1 0x20 SWAP1 SWAP2 ADD MSTORE DUP1 MLOAD SWAP1 SWAP2 POP PUSH1 0x1 PUSH1 0x1 PUSH1 0xA0 SHL SUB AND PUSH2 0xABD JUMPI PUSH1 0x0 PUSH1 0x40 MLOAD DUP1 PUSH1 0x40 ADD PUSH1 0x40 MSTORE DUP1 PUSH1 0xE DUP2 MSTORE PUSH1 0x20 ADD PUSH14 0x11DA599D081B9BDD08199BDD5B99 PUSH1 0x92 SHL DUP2 MSTORE POP SWAP3 POP SWAP3 POP POP SWAP2 POP SWAP2 JUMP JUMPDEST PUSH1 0x2 DUP2 PUSH1 0xC0 ADD MLOAD PUSH1 0x3 DUP2 GT ISZERO PUSH2 0xAD5 JUMPI PUSH2 0xAD5 PUSH2 0x1FB4 JUMP JUMPDEST SUB PUSH2 0xB13 JUMPI PUSH1 0x0 PUSH1 0x40 MLOAD DUP1 PUSH1 0x40 ADD PUSH1 0x40 MSTORE DUP1 PUSH1 0x14 DUP2 MSTORE PUSH1 0x20 ADD PUSH20 0x11DA599D08185B1C9958591E4818DB185A5B5959 PUSH1 0x62 SHL DUP2 MSTORE POP SWAP3 POP SWAP3 POP POP SWAP2 POP SWAP2 JUMP JUMPDEST PUSH1 0x3 DUP2 PUSH1 0xC0 ADD MLOAD PUSH1 0x3 DUP2 GT ISZERO PUSH2 0xB2B JUMPI PUSH2 0xB2B PUSH2 0x1FB4 JUMP JUMPDEST SUB PUSH2 0xB63 JUMPI PUSH1 0x0 PUSH1 0x40 MLOAD DUP1 PUSH1 0x40 ADD PUSH1 0x40 MSTORE DUP1 PUSH1 0xE DUP2 MSTORE PUSH1 0x20 ADD PUSH14 0x11DA599D081C9958DB185A5B5959 PUSH1 0x92 SHL DUP2 MSTORE POP SWAP3 POP SWAP3 POP POP SWAP2 POP SWAP2 JUMP JUMPDEST PUSH1 0x1 DUP2 PUSH1 0xC0 ADD MLOAD PUSH1 0x3 DUP2 GT ISZERO PUSH2 0xB7B JUMPI PUSH2 0xB7B PUSH2 0x1FB4 JUMP JUMPDEST EQ PUSH2 0xBBA JUMPI PUSH1 0x0 PUSH1 0x40 MLOAD DUP1 PUSH1 0x40 ADD PUSH1 0x40 MSTORE DUP1 PUSH1 0x15 DUP2 MSTORE PUSH1 0x20 ADD PUSH21 0x11DA599D08185B1C9958591E481C995919595B5959 PUSH1 0x5A SHL DUP2 MSTORE POP SWAP3 POP SWAP3 POP POP SWAP2 POP SWAP2 JUMP JUMPDEST PUSH1 0x1 PUSH1 0x40 MLOAD DUP1 PUSH1 0x40 ADD PUSH1 0x40 MSTORE DUP1 PUSH1 0xA DUP2 MSTORE PUSH1 0x20 ADD PUSH10 0x15985B1A590819DA599D PUSH1 0xB2 SHL DUP2 MSTORE POP SWAP3 POP SWAP3 POP POP SWAP2 POP SWAP2 JUMP JUMPDEST PUSH2 0xBF1 PUSH2 0x1AD8 JUMP JUMPDEST PUSH1 0x0 DUP2 DUP2 MSTORE PUSH1 0x2 PUSH1 0x20 MSTORE PUSH1 0x40 SWAP1 KECCAK256 DUP1 SLOAD PUSH1 0x1 PUSH1 0x1 PUSH1 0xA0 SHL SUB AND PUSH2 0xC27 JUMPI PUSH1 0x40 MLOAD PUSH4 0x1862CFE9 PUSH1 0xE0 SHL DUP2 MSTORE PUSH1 0x4 ADD PUSH1 0x40 MLOAD DUP1 SWAP2 SUB SWAP1 REVERT JUMPDEST DUP1 PUSH1 0x3 ADD SLOAD PUSH1 0x0 SUB PUSH2 0xC4C JUMPI PUSH1 0x40 MLOAD PUSH4 0x71515163 PUSH1 0xE1 SHL DUP2 MSTORE PUSH1 0x4 ADD PUSH1 0x40 MLOAD DUP1 SWAP2 SUB SWAP1 REVERT JUMPDEST PUSH1 0x1 PUSH1 0x5 DUP3 ADD SLOAD PUSH1 0xFF AND PUSH1 0x3 DUP2 GT ISZERO PUSH2 0xC67 JUMPI PUSH2 0xC67 PUSH2 0x1FB4 JUMP JUMPDEST EQ PUSH2 0xC85 JUMPI PUSH1 0x40 MLOAD PUSH4 0x95A27AF PUSH1 0xE2 SHL DUP2 MSTORE PUSH1 0x4 ADD PUSH1 0x40 MLOAD DUP1 SWAP2 SUB SWAP1 REVERT JUMPDEST TIMESTAMP DUP2 PUSH1 0x1 ADD SLOAD LT ISZERO PUSH2 0xCAA JUMPI PUSH1 0x40 MLOAD PUSH4 0xE588B007 PUSH1 0xE0 SHL DUP2 MSTORE PUSH1 0x4 ADD PUSH1 0x40 MLOAD DUP1 SWAP2 SUB SWAP1 REVERT JUMPDEST CALLER PUSH1 0x40 MLOAD PUSH1 0x20 ADD PUSH2 0xCBB SWAP2 SWAP1 PUSH2 0x20DE JUMP JUMPDEST PUSH1 0x40 MLOAD PUSH1 0x20 DUP2 DUP4 SUB SUB DUP2 MSTORE SWAP1 PUSH1 0x40 MSTORE DUP1 MLOAD SWAP1 PUSH1 0x20 ADD KECCAK256 DUP2 PUSH1 0x6 ADD SLOAD SUB PUSH2 0xCF4 JUMPI PUSH1 0x40 MLOAD PUSH4 0x130F5AD PUSH1 0xE3 SHL DUP2 MSTORE PUSH1 0x4 ADD PUSH1 0x40 MLOAD DUP1 SWAP2 SUB SWAP1 REVERT JUMPDEST PUSH1 0x5 DUP2 ADD DUP1 SLOAD PUSH1 0xFF NOT AND PUSH1 0x2 OR SWAP1 SSTORE DUP1 SLOAD PUSH1 0x1 PUSH1 0xA0 SHL PUSH1 0xFF PUSH1 0xA0 SHL NOT DUP3 AND OR DUP3 SSTORE PUSH1 0x3 DUP3 ADD SLOAD PUSH2 0xD2F SWAP2 PUSH1 0x1 PUSH1 0x1 PUSH1 0xA0 SHL SUB AND SWAP1 CALLER SWAP1 PUSH2 0x1B6F JUMP JUMPDEST CALLER PUSH1 0x1 PUSH1 0x1 PUSH1 0xA0 SHL SUB AND DUP3 PUSH32 0x5FA3F9E7544621698EFA9F5CC7B1671D9B5C3C6CF35527E0553E77FA0FAA67F8 DUP4 PUSH1 0x3 ADD SLOAD PUSH1 0x40 MLOAD PUSH2 0xD8E SWAP2 DUP2 MSTORE PUSH1 0x40 PUSH1 0x20 DUP3 ADD DUP2 SWAP1 MSTORE PUSH1 0x7 SWAP1 DUP3 ADD MSTORE PUSH7 0x10D31052535151 PUSH1 0xCA SHL PUSH1 0x60 DUP3 ADD MSTORE PUSH1 0x80 ADD SWAP1 JUMP JUMPDEST PUSH1 0x40 MLOAD DUP1 SWAP2 SUB SWAP1 LOG3 POP PUSH2 0x93C PUSH1 0x1 PUSH1 0x0 SSTORE JUMP JUMPDEST CALLER ADDRESS EQ PUSH2 0xDC1 JUMPI PUSH1 0x40 MLOAD PUSH4 0x3F04A415 PUSH1 0xE0 SHL DUP2 MSTORE PUSH1 0x4 ADD PUSH1 0x40 MLOAD DUP1 SWAP2 SUB SWAP1 REVERT JUMPDEST PUSH1 0x0 JUMPDEST DUP9 DUP2 LT ISZERO PUSH2 0x1158 JUMPI TIMESTAMP DUP9 DUP9 DUP4 DUP2 DUP2 LT PUSH2 0xDDF JUMPI PUSH2 0xDDF PUSH2 0x227A JUMP JUMPDEST SWAP1 POP PUSH1 0x20 MUL ADD CALLDATALOAD GT PUSH2 0xE04 JUMPI PUSH1 0x40 MLOAD PUSH4 0x4E96839 PUSH1 0xE2 SHL DUP2 MSTORE PUSH1 0x4 ADD PUSH1 0x40 MLOAD DUP1 SWAP2 SUB SWAP1 REVERT JUMPDEST PUSH1 0x3 DUP7 DUP7 DUP4 DUP2 DUP2 LT PUSH2 0xE18 JUMPI PUSH2 0xE18 PUSH2 0x227A JUMP JUMPDEST SWAP1 POP PUSH1 0x20 MUL DUP2 ADD SWAP1 PUSH2 0xE2A SWAP2 SWAP1 PUSH2 0x2290 JUMP JUMPDEST SWAP1 POP LT DUP1 PUSH2 0xE5D JUMPI POP PUSH1 0x32 DUP7 DUP7 DUP4 DUP2 DUP2 LT PUSH2 0xE47 JUMPI PUSH2 0xE47 PUSH2 0x227A JUMP JUMPDEST SWAP1 POP PUSH1 0x20 MUL DUP2 ADD SWAP1 PUSH2 0xE59 SWAP2 SWAP1 PUSH2 0x2290 JUMP JUMPDEST SWAP1 POP GT JUMPDEST ISZERO PUSH2 0xE7B JUMPI PUSH1 0x40 MLOAD PUSH4 0x312181A3 PUSH1 0xE2 SHL DUP2 MSTORE PUSH1 0x4 ADD PUSH1 0x40 MLOAD DUP1 SWAP2 SUB SWAP1 REVERT JUMPDEST PUSH1 0x2 PUSH1 0x0 DUP6 DUP6 DUP5 DUP2 DUP2 LT PUSH2 0xE91 JUMPI PUSH2 0xE91 PUSH2 0x227A JUMP JUMPDEST SWAP1 POP PUSH1 0x20 MUL ADD CALLDATALOAD DUP2 MSTORE PUSH1 0x20 ADD SWAP1 DUP2 MSTORE PUSH1 0x20 ADD PUSH1 0x0 KECCAK256 PUSH1 0x2 ADD SLOAD PUSH1 0x0 EQ PUSH2 0xECA JUMPI PUSH1 0x40 MLOAD PUSH4 0x12163EF PUSH1 0xE1 SHL DUP2 MSTORE PUSH1 0x4 ADD PUSH1 0x40 MLOAD DUP1 SWAP2 SUB SWAP1 REVERT JUMPDEST DUP10 DUP10 DUP3 DUP2 DUP2 LT PUSH2 0xEDC JUMPI PUSH2 0xEDC PUSH2 0x227A JUMP JUMPDEST SWAP1 POP PUSH1 0x20 MUL ADD CALLDATALOAD PUSH1 0x3 PUSH1 0x0 DUP5 DUP2 MSTORE PUSH1 0x20 ADD SWAP1 DUP2 MSTORE PUSH1 0x20 ADD PUSH1 0x0 KECCAK256 PUSH1 0x0 DUP3 DUP3 SLOAD PUSH2 0xF05 SWAP2 SWAP1 PUSH2 0x22D6 JUMP JUMPDEST SWAP1 SWAP2 SSTORE POP POP PUSH1 0x40 DUP1 MLOAD PUSH2 0x100 DUP2 ADD DUP3 MSTORE PUSH1 0x1 PUSH1 0x1 PUSH1 0xA0 SHL SUB DUP14 AND DUP2 MSTORE PUSH1 0x0 PUSH1 0x20 DUP3 ADD MSTORE SWAP1 DUP2 ADD DUP10 DUP10 DUP5 DUP2 DUP2 LT PUSH2 0xF3D JUMPI PUSH2 0xF3D PUSH2 0x227A JUMP JUMPDEST SWAP1 POP PUSH1 0x20 MUL ADD CALLDATALOAD DUP2 MSTORE PUSH1 0x20 ADD TIMESTAMP DUP2 MSTORE PUSH1 0x20 ADD DUP12 DUP12 DUP5 DUP2 DUP2 LT PUSH2 0xF61 JUMPI PUSH2 0xF61 PUSH2 0x227A JUMP JUMPDEST SWAP1 POP PUSH1 0x20 MUL ADD CALLDATALOAD DUP2 MSTORE PUSH1 0x20 ADD DUP8 DUP8 DUP5 DUP2 DUP2 LT PUSH2 0xF7F JUMPI PUSH2 0xF7F PUSH2 0x227A JUMP JUMPDEST SWAP1 POP PUSH1 0x20 MUL DUP2 ADD SWAP1 PUSH2 0xF91 SWAP2 SWAP1 PUSH2 0x2290 JUMP JUMPDEST DUP1 DUP1 PUSH1 0x1F ADD PUSH1 0x20 DUP1 SWAP2 DIV MUL PUSH1 0x20 ADD PUSH1 0x40 MLOAD SWAP1 DUP2 ADD PUSH1 0x40 MSTORE DUP1 SWAP4 SWAP3 SWAP2 SWAP1 DUP2 DUP2 MSTORE PUSH1 0x20 ADD DUP4 DUP4 DUP1 DUP3 DUP5 CALLDATACOPY PUSH1 0x0 SWAP3 ADD SWAP2 SWAP1 SWAP2 MSTORE POP POP POP SWAP1 DUP3 MSTORE POP PUSH1 0x20 ADD PUSH1 0x1 DUP2 MSTORE PUSH1 0x20 ADD DUP4 SWAP1 MSTORE PUSH1 0x2 PUSH1 0x0 DUP7 DUP7 DUP6 DUP2 DUP2 LT PUSH2 0xFEB JUMPI PUSH2 0xFEB PUSH2 0x227A JUMP JUMPDEST PUSH1 0x20 SWAP1 DUP2 MUL SWAP3 SWAP1 SWAP3 ADD CALLDATALOAD DUP4 MSTORE POP DUP2 DUP2 ADD SWAP3 SWAP1 SWAP3 MSTORE PUSH1 0x40 SWAP1 DUP2 ADD PUSH1 0x0 KECCAK256 DUP4 MLOAD DUP2 SLOAD SWAP4 DUP6 ADD MLOAD ISZERO ISZERO PUSH1 0x1 PUSH1 0xA0 SHL MUL PUSH1 0x1 PUSH1 0x1 PUSH1 0xA8 SHL SUB NOT SWAP1 SWAP5 AND PUSH1 0x1 PUSH1 0x1 PUSH1 0xA0 SHL SUB SWAP1 SWAP2 AND OR SWAP3 SWAP1 SWAP3 OR DUP3 SSTORE DUP3 ADD MLOAD PUSH1 0x1 DUP3 ADD SSTORE PUSH1 0x60 DUP3 ADD MLOAD PUSH1 0x2 DUP3 ADD SSTORE PUSH1 0x80 DUP3 ADD MLOAD PUSH1 0x3 DUP3 ADD SSTORE PUSH1 0xA0 DUP3 ADD MLOAD PUSH1 0x4 DUP3 ADD SWAP1 PUSH2 0x1065 SWAP1 DUP3 PUSH2 0x2183 JUMP JUMPDEST POP PUSH1 0xC0 DUP3 ADD MLOAD PUSH1 0x5 DUP3 ADD DUP1 SLOAD PUSH1 0xFF NOT AND PUSH1 0x1 DUP4 PUSH1 0x3 DUP2 GT ISZERO PUSH2 0x1089 JUMPI PUSH2 0x1089 PUSH2 0x1FB4 JUMP JUMPDEST MUL OR SWAP1 SSTORE POP PUSH1 0xE0 DUP3 ADD MLOAD DUP2 PUSH1 0x6 ADD SSTORE SWAP1 POP POP DUP11 PUSH1 0x1 PUSH1 0x1 PUSH1 0xA0 SHL SUB AND DUP3 DUP6 DUP6 DUP5 DUP2 DUP2 LT PUSH2 0x10B8 JUMPI PUSH2 0x10B8 PUSH2 0x227A JUMP JUMPDEST SWAP1 POP PUSH1 0x20 MUL ADD CALLDATALOAD PUSH32 0xFC007AE3F08AC6D013BF8E2D0783D44A7F8ED16433190293618D9EE28F734AED DUP10 DUP10 DUP7 DUP2 DUP2 LT PUSH2 0x10F2 JUMPI PUSH2 0x10F2 PUSH2 0x227A JUMP JUMPDEST SWAP1 POP PUSH1 0x20 MUL DUP2 ADD SWAP1 PUSH2 0x1104 SWAP2 SWAP1 PUSH2 0x2290 JUMP JUMPDEST DUP16 DUP16 DUP9 DUP2 DUP2 LT PUSH2 0x1116 JUMPI PUSH2 0x1116 PUSH2 0x227A JUMP JUMPDEST SWAP1 POP PUSH1 0x20 MUL ADD CALLDATALOAD DUP15 DUP15 DUP10 DUP2 DUP2 LT PUSH2 0x112F JUMPI PUSH2 0x112F PUSH2 0x227A JUMP JUMPDEST SWAP1 POP PUSH1 0x20 MUL ADD CALLDATALOAD TIMESTAMP PUSH1 0x40 MLOAD PUSH2 0x1148 SWAP6 SWAP5 SWAP4 SWAP3 SWAP2 SWAP1 PUSH2 0x2312 JUMP JUMPDEST PUSH1 0x40 MLOAD DUP1 SWAP2 SUB SWAP1 LOG4 PUSH1 0x1 ADD PUSH2 0xDC4 JUMP JUMPDEST POP POP POP POP POP POP POP POP POP POP POP JUMP JUMPDEST PUSH1 0x4 PUSH1 0x20 MSTORE PUSH1 0x0 SWAP1 DUP2 MSTORE PUSH1 0x40 SWAP1 KECCAK256 DUP1 SLOAD PUSH1 0x1 DUP3 ADD SLOAD PUSH1 0x2 DUP4 ADD DUP1 SLOAD PUSH1 0x1 PUSH1 0x1 PUSH1 0xA0 SHL SUB SWAP4 DUP5 AND SWAP5 SWAP3 SWAP1 SWAP4 AND SWAP3 PUSH2 0x119A SWAP1 PUSH2 0x20FB JUMP JUMPDEST DUP1 PUSH1 0x1F ADD PUSH1 0x20 DUP1 SWAP2 DIV MUL PUSH1 0x20 ADD PUSH1 0x40 MLOAD SWAP1 DUP2 ADD PUSH1 0x40 MSTORE DUP1 SWAP3 SWAP2 SWAP1 DUP2 DUP2 MSTORE PUSH1 0x20 ADD DUP3 DUP1 SLOAD PUSH2 0x11C6 SWAP1 PUSH2 0x20FB JUMP JUMPDEST DUP1 ISZERO PUSH2 0x1213 JUMPI DUP1 PUSH1 0x1F LT PUSH2 0x11E8 JUMPI PUSH2 0x100 DUP1 DUP4 SLOAD DIV MUL DUP4 MSTORE SWAP2 PUSH1 0x20 ADD SWAP2 PUSH2 0x1213 JUMP JUMPDEST DUP3 ADD SWAP2 SWAP1 PUSH1 0x0 MSTORE PUSH1 0x20 PUSH1 0x0 KECCAK256 SWAP1 JUMPDEST DUP2 SLOAD DUP2 MSTORE SWAP1 PUSH1 0x1 ADD SWAP1 PUSH1 0x20 ADD DUP1 DUP4 GT PUSH2 0x11F6 JUMPI DUP3 SWAP1 SUB PUSH1 0x1F AND DUP3 ADD SWAP2 JUMPDEST POP POP POP POP POP SWAP1 DUP1 PUSH1 0x3 ADD DUP1 SLOAD PUSH2 0x1228 SWAP1 PUSH2 0x20FB JUMP JUMPDEST DUP1 PUSH1 0x1F ADD PUSH1 0x20 DUP1 SWAP2 DIV MUL PUSH1 0x20 ADD PUSH1 0x40 MLOAD SWAP1 DUP2 ADD PUSH1 0x40 MSTORE DUP1 SWAP3 SWAP2 SWAP1 DUP2 DUP2 MSTORE PUSH1 0x20 ADD DUP3 DUP1 SLOAD PUSH2 0x1254 SWAP1 PUSH2 0x20FB JUMP JUMPDEST DUP1 ISZERO PUSH2 0x12A1 JUMPI DUP1 PUSH1 0x1F LT PUSH2 0x1276 JUMPI PUSH2 0x100 DUP1 DUP4 SLOAD DIV MUL DUP4 MSTORE SWAP2 PUSH1 0x20 ADD SWAP2 PUSH2 0x12A1 JUMP JUMPDEST DUP3 ADD SWAP2 SWAP1 PUSH1 0x0 MSTORE PUSH1 0x20 PUSH1 0x0 KECCAK256 SWAP1 JUMPDEST DUP2 SLOAD DUP2 MSTORE SWAP1 PUSH1 0x1 ADD SWAP1 PUSH1 0x20 ADD DUP1 DUP4 GT PUSH2 0x1284 JUMPI DUP3 SWAP1 SUB PUSH1 0x1F AND DUP3 ADD SWAP2 JUMPDEST POP POP POP POP PUSH1 0x4 DUP4 ADD SLOAD PUSH1 0x5 DUP5 ADD SLOAD PUSH1 0x6 DUP6 ADD SLOAD PUSH1 0x7 SWAP1 SWAP6 ADD SLOAD SWAP4 SWAP5 SWAP2 SWAP4 SWAP1 SWAP3 POP PUSH1 0xFF AND DUP9 JUMP JUMPDEST PUSH1 0x5 DUP9 LT ISZERO PUSH2 0x12E9 JUMPI PUSH1 0x40 MLOAD PUSH4 0x433F120B PUSH1 0xE0 SHL DUP2 MSTORE PUSH1 0x4 ADD PUSH1 0x40 MLOAD DUP1 SWAP2 SUB SWAP1 REVERT JUMPDEST DUP8 DUP7 EQ ISZERO DUP1 PUSH2 0x12F8 JUMPI POP DUP8 DUP5 EQ ISZERO JUMPDEST DUP1 PUSH2 0x1303 JUMPI POP DUP8 DUP3 EQ ISZERO JUMPDEST ISZERO PUSH2 0x1321 JUMPI PUSH1 0x40 MLOAD PUSH4 0x4456F5E9 PUSH1 0xE1 SHL DUP2 MSTORE PUSH1 0x4 ADD PUSH1 0x40 MLOAD DUP1 SWAP2 SUB SWAP1 REVERT JUMPDEST DUP1 CALLER PUSH1 0x40 MLOAD PUSH1 0x20 ADD PUSH2 0x1333 SWAP2 SWAP1 PUSH2 0x20DE JUMP JUMPDEST PUSH1 0x40 MLOAD PUSH1 0x20 DUP2 DUP4 SUB SUB DUP2 MSTORE SWAP1 PUSH1 0x40 MSTORE DUP1 MLOAD SWAP1 PUSH1 0x20 ADD KECCAK256 EQ PUSH2 0x1367 JUMPI PUSH1 0x40 MLOAD PUSH4 0x6177623 PUSH1 0xE5 SHL DUP2 MSTORE PUSH1 0x4 ADD PUSH1 0x40 MLOAD DUP1 SWAP2 SUB SWAP1 REVERT JUMPDEST PUSH1 0x1 PUSH1 0x1 PUSH1 0xA0 SHL SUB DUP11 AND PUSH2 0x138E JUMPI PUSH1 0x40 MLOAD PUSH4 0x5963709B PUSH1 0xE0 SHL DUP2 MSTORE PUSH1 0x4 ADD PUSH1 0x40 MLOAD DUP1 SWAP2 SUB SWAP1 REVERT JUMPDEST DUP10 PUSH1 0x0 DUP1 JUMPDEST DUP11 DUP2 LT ISZERO PUSH2 0x1402 JUMPI PUSH1 0x0 DUP13 DUP13 DUP4 DUP2 DUP2 LT PUSH2 0x13AF JUMPI PUSH2 0x13AF PUSH2 0x227A JUMP JUMPDEST SWAP1 POP PUSH1 0x20 MUL ADD CALLDATALOAD GT PUSH2 0x13D4 JUMPI PUSH1 0x40 MLOAD PUSH4 0xFAE82791 PUSH1 0xE0 SHL DUP2 MSTORE PUSH1 0x4 ADD PUSH1 0x40 MLOAD DUP1 SWAP2 SUB SWAP1 REVERT JUMPDEST DUP12 DUP12 DUP3 DUP2 DUP2 LT PUSH2 0x13E6 JUMPI PUSH2 0x13E6 PUSH2 0x227A JUMP JUMPDEST SWAP1 POP PUSH1 0x20 MUL ADD CALLDATALOAD DUP3 PUSH2 0x13F8 SWAP2 SWAP1 PUSH2 0x20C5 JUMP JUMPDEST SWAP2 POP PUSH1 0x1 ADD PUSH2 0x1393 JUMP JUMPDEST POP PUSH1 0x40 MLOAD PUSH4 0x23B872DD PUSH1 0xE0 SHL DUP2 MSTORE CALLER PUSH1 0x4 DUP3 ADD MSTORE ADDRESS PUSH1 0x24 DUP3 ADD MSTORE PUSH1 0x44 DUP2 ADD DUP3 SWAP1 MSTORE PUSH1 0x1 PUSH1 0x1 PUSH1 0xA0 SHL SUB DUP4 AND SWAP1 PUSH4 0x23B872DD SWAP1 PUSH1 0x64 ADD PUSH1 0x20 PUSH1 0x40 MLOAD DUP1 DUP4 SUB DUP2 PUSH1 0x0 DUP8 GAS CALL ISZERO DUP1 ISZERO PUSH2 0x1456 JUMPI RETURNDATASIZE PUSH1 0x0 DUP1 RETURNDATACOPY RETURNDATASIZE PUSH1 0x0 REVERT JUMPDEST POP POP POP POP PUSH1 0x40 MLOAD RETURNDATASIZE PUSH1 0x1F NOT PUSH1 0x1F DUP3 ADD AND DUP3 ADD DUP1 PUSH1 0x40 MSTORE POP DUP2 ADD SWAP1 PUSH2 0x147A SWAP2 SWAP1 PUSH2 0x236A JUMP JUMPDEST PUSH2 0x1497 JUMPI PUSH1 0x40 MLOAD PUSH4 0x1FA55C07 PUSH1 0xE1 SHL DUP2 MSTORE PUSH1 0x4 ADD PUSH1 0x40 MLOAD DUP1 SWAP2 SUB SWAP1 REVERT JUMPDEST PUSH1 0x0 DUP4 DUP2 MSTORE PUSH1 0x3 PUSH1 0x20 MSTORE PUSH1 0x40 SWAP1 DUP2 SWAP1 KECCAK256 DUP3 SWAP1 SSTORE MLOAD PUSH4 0x9E85DAD9 PUSH1 0xE0 SHL DUP2 MSTORE ADDRESS SWAP1 PUSH4 0x9E85DAD9 SWAP1 PUSH2 0x14DD SWAP1 DUP16 SWAP1 DUP16 SWAP1 DUP16 SWAP1 DUP16 SWAP1 DUP16 SWAP1 DUP16 SWAP1 DUP16 SWAP1 DUP16 SWAP1 DUP16 SWAP1 DUP16 SWAP1 PUSH1 0x4 ADD PUSH2 0x23C5 JUMP JUMPDEST PUSH1 0x0 PUSH1 0x40 MLOAD DUP1 DUP4 SUB DUP2 PUSH1 0x0 DUP8 DUP1 EXTCODESIZE ISZERO DUP1 ISZERO PUSH2 0x14F7 JUMPI PUSH1 0x0 DUP1 REVERT JUMPDEST POP GAS CALL SWAP3 POP POP POP DUP1 ISZERO PUSH2 0x1508 JUMPI POP PUSH1 0x1 JUMPDEST PUSH2 0x155D JUMPI PUSH1 0x0 DUP4 DUP2 MSTORE PUSH1 0x3 PUSH1 0x20 MSTORE PUSH1 0x40 SWAP1 KECCAK256 SLOAD DUP1 ISZERO PUSH2 0x1544 JUMPI PUSH1 0x0 DUP5 DUP2 MSTORE PUSH1 0x3 PUSH1 0x20 MSTORE PUSH1 0x40 DUP2 KECCAK256 SSTORE PUSH2 0x1544 PUSH1 0x1 PUSH1 0x1 PUSH1 0xA0 SHL SUB DUP5 AND CALLER DUP4 PUSH2 0x1B6F JUMP JUMPDEST PUSH1 0x40 MLOAD PUSH4 0x3F777B7 PUSH1 0xE2 SHL DUP2 MSTORE PUSH1 0x4 ADD PUSH1 0x40 MLOAD DUP1 SWAP2 SUB SWAP1 REVERT JUMPDEST POP POP PUSH1 0x0 SWAP1 DUP2 MSTORE PUSH1 0x3 PUSH1 0x20 MSTORE PUSH1 0x40 DUP2 KECCAK256 SSTORE POP POP POP POP POP POP POP POP POP JUMP JUMPDEST PUSH1 0x2 PUSH1 0x20 DUP2 SWAP1 MSTORE PUSH1 0x0 SWAP2 DUP3 MSTORE PUSH1 0x40 SWAP1 SWAP2 KECCAK256 DUP1 SLOAD PUSH1 0x1 DUP3 ADD SLOAD SWAP3 DUP3 ADD SLOAD PUSH1 0x3 DUP4 ADD SLOAD PUSH1 0x4 DUP5 ADD DUP1 SLOAD PUSH1 0x1 PUSH1 0x1 PUSH1 0xA0 SHL SUB DUP6 AND SWAP7 PUSH1 0x1 PUSH1 0xA0 SHL SWAP1 SWAP6 DIV PUSH1 0xFF AND SWAP6 SWAP2 SWAP1 PUSH2 0x15C2 SWAP1 PUSH2 0x20FB JUMP JUMPDEST DUP1 PUSH1 0x1F ADD PUSH1 0x20 DUP1 SWAP2 DIV MUL PUSH1 0x20 ADD PUSH1 0x40 MLOAD SWAP1 DUP2 ADD PUSH1 0x40 MSTORE DUP1 SWAP3 SWAP2 SWAP1 DUP2 DUP2 MSTORE PUSH1 0x20 ADD DUP3 DUP1 SLOAD PUSH2 0x15EE SWAP1 PUSH2 0x20FB JUMP JUMPDEST DUP1 ISZERO PUSH2 0x163B JUMPI DUP1 PUSH1 0x1F LT PUSH2 0x1610 JUMPI PUSH2 0x100 DUP1 DUP4 SLOAD DIV MUL DUP4 MSTORE SWAP2 PUSH1 0x20 ADD SWAP2 PUSH2 0x163B JUMP JUMPDEST DUP3 ADD SWAP2 SWAP1 PUSH1 0x0 MSTORE PUSH1 0x20 PUSH1 0x0 KECCAK256 SWAP1 JUMPDEST DUP2 SLOAD DUP2 MSTORE SWAP1 PUSH1 0x1 ADD SWAP1 PUSH1 0x20 ADD DUP1 DUP4 GT PUSH2 0x161E JUMPI DUP3 SWAP1 SUB PUSH1 0x1F AND DUP3 ADD SWAP2 JUMPDEST POP POP POP POP PUSH1 0x5 DUP4 ADD SLOAD PUSH1 0x6 SWAP1 SWAP4 ADD SLOAD SWAP2 SWAP3 PUSH1 0xFF AND SWAP2 SWAP1 POP DUP9 JUMP JUMPDEST PUSH2 0x165D PUSH2 0x1AD8 JUMP JUMPDEST PUSH1 0x0 DUP2 DUP2 MSTORE PUSH1 0x2 PUSH1 0x20 MSTORE PUSH1 0x40 SWAP1 KECCAK256 DUP1 SLOAD PUSH1 0x1 PUSH1 0x1 PUSH1 0xA0 SHL SUB AND PUSH2 0x1693 JUMPI PUSH1 0x40 MLOAD PUSH4 0x615B0ED PUSH1 0xE4 SHL DUP2 MSTORE PUSH1 0x4 ADD PUSH1 0x40 MLOAD DUP1 SWAP2 SUB SWAP1 REVERT JUMPDEST DUP1 PUSH1 0x6 ADD SLOAD CALLER PUSH1 0x40 MLOAD PUSH1 0x20 ADD PUSH2 0x16A9 SWAP2 SWAP1 PUSH2 0x20DE JUMP JUMPDEST PUSH1 0x40 MLOAD PUSH1 0x20 DUP2 DUP4 SUB SUB DUP2 MSTORE SWAP1 PUSH1 0x40 MSTORE DUP1 MLOAD SWAP1 PUSH1 0x20 ADD KECCAK256 EQ PUSH2 0x16DD JUMPI PUSH1 0x40 MLOAD PUSH4 0x3C68288F PUSH1 0xE0 SHL DUP2 MSTORE PUSH1 0x4 ADD PUSH1 0x40 MLOAD DUP1 SWAP2 SUB SWAP1 REVERT JUMPDEST PUSH1 0x2 PUSH1 0x5 DUP3 ADD SLOAD PUSH1 0xFF AND PUSH1 0x3 DUP2 GT ISZERO PUSH2 0x16F8 JUMPI PUSH2 0x16F8 PUSH2 0x1FB4 JUMP JUMPDEST SUB PUSH2 0x1716 JUMPI PUSH1 0x40 MLOAD PUSH4 0x88E8CA65 PUSH1 0xE0 SHL DUP2 MSTORE PUSH1 0x4 ADD PUSH1 0x40 MLOAD DUP1 SWAP2 SUB SWAP1 REVERT JUMPDEST PUSH1 0x3 PUSH1 0x5 DUP3 ADD SLOAD PUSH1 0xFF AND PUSH1 0x3 DUP2 GT ISZERO PUSH2 0x1731 JUMPI PUSH2 0x1731 PUSH2 0x1FB4 JUMP JUMPDEST SUB PUSH2 0x174F JUMPI PUSH1 0x40 MLOAD PUSH4 0x11026569 PUSH1 0xE1 SHL DUP2 MSTORE PUSH1 0x4 ADD PUSH1 0x40 MLOAD DUP1 SWAP2 SUB SWAP1 REVERT JUMPDEST DUP1 PUSH1 0x1 ADD SLOAD TIMESTAMP GT PUSH2 0x1773 JUMPI PUSH1 0x40 MLOAD PUSH4 0x8DBECB9 PUSH1 0xE1 SHL DUP2 MSTORE PUSH1 0x4 ADD PUSH1 0x40 MLOAD DUP1 SWAP2 SUB SWAP1 REVERT JUMPDEST PUSH1 0x5 DUP2 ADD DUP1 SLOAD PUSH1 0xFF NOT AND PUSH1 0x3 SWAP1 DUP2 OR SWAP1 SWAP2 SSTORE DUP2 SLOAD PUSH1 0x1 PUSH1 0xA0 SHL PUSH1 0xFF PUSH1 0xA0 SHL NOT DUP3 AND OR DUP4 SSTORE SWAP1 DUP3 ADD SLOAD PUSH2 0x17B0 SWAP2 PUSH1 0x1 PUSH1 0x1 PUSH1 0xA0 SHL SUB AND SWAP1 CALLER SWAP1 PUSH2 0x1B6F JUMP JUMPDEST CALLER PUSH1 0x1 PUSH1 0x1 PUSH1 0xA0 SHL SUB AND DUP3 PUSH32 0x285A507B21EE662F44AA4CE8B5B57ED14C3BEECEDE75C04BEA30E8CE14A2E776 DUP4 PUSH1 0x3 ADD SLOAD PUSH1 0x40 MLOAD PUSH2 0xD8E SWAP2 DUP2 MSTORE PUSH1 0x40 PUSH1 0x20 DUP3 ADD DUP2 SWAP1 MSTORE PUSH1 0x9 SWAP1 DUP3 ADD MSTORE PUSH9 0x149150D31052535151 PUSH1 0xBA SHL PUSH1 0x60 DUP3 ADD MSTORE PUSH1 0x80 ADD SWAP1 JUMP JUMPDEST PUSH1 0x1 SLOAD PUSH1 0x1 PUSH1 0x1 PUSH1 0xA0 SHL SUB AND CALLER EQ PUSH2 0x183C JUMPI PUSH1 0x40 MLOAD PUSH4 0x984AB909 PUSH1 0xE0 SHL DUP2 MSTORE PUSH1 0x4 ADD PUSH1 0x40 MLOAD DUP1 SWAP2 SUB SWAP1 REVERT JUMPDEST PUSH1 0x1 PUSH1 0x1 PUSH1 0xA0 SHL SUB DUP7 AND PUSH2 0x1863 JUMPI PUSH1 0x40 MLOAD PUSH4 0x5963709B PUSH1 0xE0 SHL DUP2 MSTORE PUSH1 0x4 ADD PUSH1 0x40 MLOAD DUP1 SWAP2 SUB SWAP1 REVERT JUMPDEST PUSH1 0x0 DUP6 GT PUSH2 0x1884 JUMPI PUSH1 0x40 MLOAD PUSH4 0xFAE82791 PUSH1 0xE0 SHL DUP2 MSTORE PUSH1 0x4 ADD PUSH1 0x40 MLOAD DUP1 SWAP2 SUB SWAP1 REVERT JUMPDEST TIMESTAMP DUP5 GT PUSH2 0x18A4 JUMPI PUSH1 0x40 MLOAD PUSH4 0x4E96839 PUSH1 0xE2 SHL DUP2 MSTORE PUSH1 0x4 ADD PUSH1 0x40 MLOAD DUP1 SWAP2 SUB SWAP1 REVERT JUMPDEST PUSH1 0x3 DUP4 MLOAD LT DUP1 PUSH2 0x18B5 JUMPI POP PUSH1 0x32 DUP4 MLOAD GT JUMPDEST ISZERO PUSH2 0x18D3 JUMPI PUSH1 0x40 MLOAD PUSH4 0x312181A3 PUSH1 0xE2 SHL DUP2 MSTORE PUSH1 0x4 ADD PUSH1 0x40 MLOAD DUP1 SWAP2 SUB SWAP1 REVERT JUMPDEST PUSH1 0x0 DUP3 DUP2 MSTORE PUSH1 0x2 PUSH1 0x20 DUP2 SWAP1 MSTORE PUSH1 0x40 SWAP1 SWAP2 KECCAK256 ADD SLOAD ISZERO PUSH2 0x1904 JUMPI PUSH1 0x40 MLOAD PUSH4 0x12163EF PUSH1 0xE1 SHL DUP2 MSTORE PUSH1 0x4 ADD PUSH1 0x40 MLOAD DUP1 SWAP2 SUB SWAP1 REVERT JUMPDEST PUSH1 0x40 MLOAD PUSH4 0x23B872DD PUSH1 0xE0 SHL DUP2 MSTORE CALLER PUSH1 0x4 DUP3 ADD MSTORE ADDRESS PUSH1 0x24 DUP3 ADD MSTORE PUSH1 0x44 DUP2 ADD DUP7 SWAP1 MSTORE DUP7 SWAP1 PUSH1 0x1 PUSH1 0x1 PUSH1 0xA0 SHL SUB DUP3 AND SWAP1 PUSH4 0x23B872DD SWAP1 PUSH1 0x64 ADD PUSH1 0x20 PUSH1 0x40 MLOAD DUP1 DUP4 SUB DUP2 PUSH1 0x0 DUP8 GAS CALL ISZERO DUP1 ISZERO PUSH2 0x1959 JUMPI RETURNDATASIZE PUSH1 0x0 DUP1 RETURNDATACOPY RETURNDATASIZE PUSH1 0x0 REVERT JUMPDEST POP POP POP POP PUSH1 0x40 MLOAD RETURNDATASIZE PUSH1 0x1F NOT PUSH1 0x1F DUP3 ADD AND DUP3 ADD DUP1 PUSH1 0x40 MSTORE POP DUP2 ADD SWAP1 PUSH2 0x197D SWAP2 SWAP1 PUSH2 0x236A JUMP JUMPDEST PUSH2 0x199A JUMPI PUSH1 0x40 MLOAD PUSH4 0x1FA55C07 PUSH1 0xE1 SHL DUP2 MSTORE PUSH1 0x4 ADD PUSH1 0x40 MLOAD DUP1 SWAP2 SUB SWAP1 REVERT JUMPDEST PUSH1 0x40 DUP1 MLOAD PUSH2 0x100 DUP2 ADD DUP3 MSTORE PUSH1 0x1 PUSH1 0x1 PUSH1 0xA0 SHL SUB DUP10 AND DUP2 MSTORE PUSH1 0x0 PUSH1 0x20 DUP3 ADD MSTORE SWAP1 DUP2 ADD DUP7 SWAP1 MSTORE TIMESTAMP PUSH1 0x60 DUP3 ADD MSTORE PUSH1 0x80 DUP2 ADD DUP8 SWAP1 MSTORE PUSH1 0xA0 DUP2 ADD DUP6 SWAP1 MSTORE PUSH1 0xC0 DUP2 ADD PUSH1 0x1 DUP2 MSTORE PUSH1 0x20 SWAP1 DUP2 ADD DUP5 SWAP1 MSTORE PUSH1 0x0 DUP6 DUP2 MSTORE PUSH1 0x2 DUP1 DUP4 MSTORE PUSH1 0x40 SWAP2 DUP3 SWAP1 KECCAK256 DUP5 MLOAD DUP2 SLOAD SWAP5 DUP7 ADD MLOAD ISZERO ISZERO PUSH1 0x1 PUSH1 0xA0 SHL MUL PUSH1 0x1 PUSH1 0x1 PUSH1 0xA8 SHL SUB NOT SWAP1 SWAP6 AND PUSH1 0x1 PUSH1 0x1 PUSH1 0xA0 SHL SUB SWAP1 SWAP2 AND OR SWAP4 SWAP1 SWAP4 OR DUP4 SSTORE SWAP1 DUP4 ADD MLOAD PUSH1 0x1 DUP4 ADD SSTORE PUSH1 0x60 DUP4 ADD MLOAD SWAP1 DUP3 ADD SSTORE PUSH1 0x80 DUP3 ADD MLOAD PUSH1 0x3 DUP3 ADD SSTORE PUSH1 0xA0 DUP3 ADD MLOAD PUSH1 0x4 DUP3 ADD SWAP1 PUSH2 0x1A50 SWAP1 DUP3 PUSH2 0x2183 JUMP JUMPDEST POP PUSH1 0xC0 DUP3 ADD MLOAD PUSH1 0x5 DUP3 ADD DUP1 SLOAD PUSH1 0xFF NOT AND PUSH1 0x1 DUP4 PUSH1 0x3 DUP2 GT ISZERO PUSH2 0x1A74 JUMPI PUSH2 0x1A74 PUSH2 0x1FB4 JUMP JUMPDEST MUL OR SWAP1 SSTORE POP PUSH1 0xE0 DUP3 ADD MLOAD DUP2 PUSH1 0x6 ADD SSTORE SWAP1 POP POP DUP7 PUSH1 0x1 PUSH1 0x1 PUSH1 0xA0 SHL SUB AND DUP3 DUP5 PUSH32 0xFC007AE3F08AC6D013BF8E2D0783D44A7F8ED16433190293618D9EE28F734AED DUP8 DUP11 DUP11 TIMESTAMP PUSH1 0x40 MLOAD PUSH2 0x1AC7 SWAP5 SWAP4 SWAP3 SWAP2 SWAP1 PUSH2 0x24C4 JUMP JUMPDEST PUSH1 0x40 MLOAD DUP1 SWAP2 SUB SWAP1 LOG4 POP POP POP POP POP POP POP JUMP JUMPDEST PUSH1 0x2 PUSH1 0x0 SLOAD SUB PUSH2 0x1AFB JUMPI PUSH1 0x40 MLOAD PUSH4 0x3EE5AEB5 PUSH1 0xE0 SHL DUP2 MSTORE PUSH1 0x4 ADD PUSH1 0x40 MLOAD DUP1 SWAP2 SUB SWAP1 REVERT JUMPDEST PUSH1 0x2 PUSH1 0x0 SSTORE JUMP JUMPDEST PUSH1 0x40 MLOAD PUSH1 0x1 PUSH1 0x1 PUSH1 0xA0 SHL SUB DUP5 DUP2 AND PUSH1 0x24 DUP4 ADD MSTORE DUP4 DUP2 AND PUSH1 0x44 DUP4 ADD MSTORE PUSH1 0x64 DUP3 ADD DUP4 SWAP1 MSTORE PUSH2 0x1B69 SWAP2 DUP7 SWAP2 DUP3 AND SWAP1 PUSH4 0x23B872DD SWAP1 PUSH1 0x84 ADD JUMPDEST PUSH1 0x40 MLOAD PUSH1 0x20 DUP2 DUP4 SUB SUB DUP2 MSTORE SWAP1 PUSH1 0x40 MSTORE SWAP2 POP PUSH1 0xE0 SHL PUSH1 0x20 DUP3 ADD DUP1 MLOAD PUSH1 0x1 PUSH1 0x1 PUSH1 0xE0 SHL SUB DUP4 DUP2 DUP4 AND OR DUP4 MSTORE POP POP POP POP PUSH2 0x1BA5 JUMP JUMPDEST POP POP POP POP JUMP JUMPDEST PUSH1 0x40 MLOAD PUSH1 0x1 PUSH1 0x1 PUSH1 0xA0 SHL SUB DUP4 DUP2 AND PUSH1 0x24 DUP4 ADD MSTORE PUSH1 0x44 DUP3 ADD DUP4 SWAP1 MSTORE PUSH2 0x1BA0 SWAP2 DUP6 SWAP2 DUP3 AND SWAP1 PUSH4 0xA9059CBB SWAP1 PUSH1 0x64 ADD PUSH2 0x1B37 JUMP JUMPDEST POP POP POP JUMP JUMPDEST PUSH1 0x0 DUP1 PUSH1 0x20 PUSH1 0x0 DUP5 MLOAD PUSH1 0x20 DUP7 ADD PUSH1 0x0 DUP9 GAS CALL DUP1 PUSH2 0x1BC8 JUMPI PUSH1 0x40 MLOAD RETURNDATASIZE PUSH1 0x0 DUP3 RETURNDATACOPY RETURNDATASIZE DUP2 REVERT JUMPDEST POP POP PUSH1 0x0 MLOAD RETURNDATASIZE SWAP2 POP DUP2 ISZERO PUSH2 0x1BE0 JUMPI DUP1 PUSH1 0x1 EQ ISZERO PUSH2 0x1BED JUMP JUMPDEST PUSH1 0x1 PUSH1 0x1 PUSH1 0xA0 SHL SUB DUP5 AND EXTCODESIZE ISZERO JUMPDEST ISZERO PUSH2 0x1B69 JUMPI PUSH1 0x40 MLOAD PUSH4 0x5274AFE7 PUSH1 0xE0 SHL DUP2 MSTORE PUSH1 0x1 PUSH1 0x1 PUSH1 0xA0 SHL SUB DUP6 AND PUSH1 0x4 DUP3 ADD MSTORE PUSH1 0x24 ADD PUSH1 0x40 MLOAD DUP1 SWAP2 SUB SWAP1 REVERT JUMPDEST PUSH1 0x0 DUP1 PUSH1 0x40 DUP4 DUP6 SUB SLT ISZERO PUSH2 0x1C2D JUMPI PUSH1 0x0 DUP1 REVERT JUMPDEST POP POP DUP1 CALLDATALOAD SWAP3 PUSH1 0x20 SWAP1 SWAP2 ADD CALLDATALOAD SWAP2 POP JUMP JUMPDEST PUSH4 0x4E487B71 PUSH1 0xE0 SHL PUSH1 0x0 MSTORE PUSH1 0x41 PUSH1 0x4 MSTORE PUSH1 0x24 PUSH1 0x0 REVERT JUMPDEST PUSH1 0x0 DUP3 PUSH1 0x1F DUP4 ADD SLT PUSH2 0x1C63 JUMPI PUSH1 0x0 DUP1 REVERT JUMPDEST DUP2 CALLDATALOAD PUSH1 0x1 PUSH1 0x1 PUSH1 0x40 SHL SUB DUP2 GT ISZERO PUSH2 0x1C7C JUMPI PUSH2 0x1C7C PUSH2 0x1C3C JUMP JUMPDEST PUSH1 0x40 MLOAD PUSH1 0x1F DUP3 ADD PUSH1 0x1F NOT SWAP1 DUP2 AND PUSH1 0x3F ADD AND DUP2 ADD PUSH1 0x1 PUSH1 0x1 PUSH1 0x40 SHL SUB DUP2 GT DUP3 DUP3 LT OR ISZERO PUSH2 0x1CAA JUMPI PUSH2 0x1CAA PUSH2 0x1C3C JUMP JUMPDEST PUSH1 0x40 MSTORE DUP2 DUP2 MSTORE DUP4 DUP3 ADD PUSH1 0x20 ADD DUP6 LT ISZERO PUSH2 0x1CC2 JUMPI PUSH1 0x0 DUP1 REVERT JUMPDEST DUP2 PUSH1 0x20 DUP6 ADD PUSH1 0x20 DUP4 ADD CALLDATACOPY PUSH1 0x0 SWAP2 DUP2 ADD PUSH1 0x20 ADD SWAP2 SWAP1 SWAP2 MSTORE SWAP4 SWAP3 POP POP POP JUMP JUMPDEST DUP1 CALLDATALOAD PUSH1 0x1 PUSH1 0x1 PUSH1 0xA0 SHL SUB DUP2 AND DUP2 EQ PUSH2 0x1CF6 JUMPI PUSH1 0x0 DUP1 REVERT JUMPDEST SWAP2 SWAP1 POP JUMP JUMPDEST PUSH1 0x0 DUP1 PUSH1 0x0 DUP1 PUSH1 0x0 DUP1 PUSH1 0xC0 DUP8 DUP10 SUB SLT ISZERO PUSH2 0x1D14 JUMPI PUSH1 0x0 DUP1 REVERT JUMPDEST DUP7 CALLDATALOAD PUSH1 0x1 PUSH1 0x1 PUSH1 0x40 SHL SUB DUP2 GT ISZERO PUSH2 0x1D2A JUMPI PUSH1 0x0 DUP1 REVERT JUMPDEST PUSH2 0x1D36 DUP10 DUP3 DUP11 ADD PUSH2 0x1C52 JUMP JUMPDEST SWAP7 POP POP PUSH1 0x20 DUP8 ADD CALLDATALOAD PUSH1 0x1 PUSH1 0x1 PUSH1 0x40 SHL SUB DUP2 GT ISZERO PUSH2 0x1D52 JUMPI PUSH1 0x0 DUP1 REVERT JUMPDEST PUSH2 0x1D5E DUP10 DUP3 DUP11 ADD PUSH2 0x1C52 JUMP JUMPDEST SWAP6 POP POP PUSH2 0x1D6D PUSH1 0x40 DUP9 ADD PUSH2 0x1CDF JUMP JUMPDEST SWAP6 SWAP9 SWAP5 SWAP8 POP SWAP5 SWAP6 PUSH1 0x60 DUP2 ADD CALLDATALOAD SWAP6 POP PUSH1 0x80 DUP2 ADD CALLDATALOAD SWAP5 PUSH1 0xA0 SWAP1 SWAP2 ADD CALLDATALOAD SWAP4 POP SWAP2 POP POP JUMP JUMPDEST PUSH1 0x0 PUSH1 0x20 DUP3 DUP5 SUB SLT ISZERO PUSH2 0x1DA0 JUMPI PUSH1 0x0 DUP1 REVERT JUMPDEST POP CALLDATALOAD SWAP2 SWAP1 POP JUMP JUMPDEST PUSH1 0x0 DUP2 MLOAD DUP1 DUP5 MSTORE PUSH1 0x0 JUMPDEST DUP2 DUP2 LT ISZERO PUSH2 0x1DCD JUMPI PUSH1 0x20 DUP2 DUP6 ADD DUP2 ADD MLOAD DUP7 DUP4 ADD DUP3 ADD MSTORE ADD PUSH2 0x1DB1 JUMP JUMPDEST POP PUSH1 0x0 PUSH1 0x20 DUP3 DUP7 ADD ADD MSTORE PUSH1 0x20 PUSH1 0x1F NOT PUSH1 0x1F DUP4 ADD AND DUP6 ADD ADD SWAP2 POP POP SWAP3 SWAP2 POP POP JUMP JUMPDEST PUSH1 0x1 PUSH1 0x1 PUSH1 0xA0 SHL SUB DUP10 DUP2 AND DUP3 MSTORE DUP9 AND PUSH1 0x20 DUP3 ADD MSTORE PUSH2 0x100 PUSH1 0x40 DUP3 ADD DUP2 SWAP1 MSTORE PUSH1 0x0 SWAP1 PUSH2 0x1E1A SWAP1 DUP4 ADD DUP10 PUSH2 0x1DA7 JUMP JUMPDEST DUP3 DUP2 SUB PUSH1 0x60 DUP5 ADD MSTORE PUSH2 0x1E2C DUP2 DUP10 PUSH2 0x1DA7 JUMP JUMPDEST SWAP2 POP POP DUP6 PUSH1 0x80 DUP4 ADD MSTORE DUP5 PUSH1 0xA0 DUP4 ADD MSTORE DUP4 PUSH1 0xC0 DUP4 ADD MSTORE DUP3 ISZERO ISZERO PUSH1 0xE0 DUP4 ADD MSTORE SWAP10 SWAP9 POP POP POP POP POP POP POP POP POP JUMP JUMPDEST DUP3 ISZERO ISZERO DUP2 MSTORE PUSH1 0x40 PUSH1 0x20 DUP3 ADD MSTORE PUSH1 0x0 PUSH2 0x1E71 PUSH1 0x40 DUP4 ADD DUP5 PUSH2 0x1DA7 JUMP JUMPDEST SWAP5 SWAP4 POP POP POP POP JUMP JUMPDEST PUSH1 0x0 DUP1 DUP4 PUSH1 0x1F DUP5 ADD SLT PUSH2 0x1E8B JUMPI PUSH1 0x0 DUP1 REVERT JUMPDEST POP DUP2 CALLDATALOAD PUSH1 0x1 PUSH1 0x1 PUSH1 0x40 SHL SUB DUP2 GT ISZERO PUSH2 0x1EA2 JUMPI PUSH1 0x0 DUP1 REVERT JUMPDEST PUSH1 0x20 DUP4 ADD SWAP2 POP DUP4 PUSH1 0x20 DUP3 PUSH1 0x5 SHL DUP6 ADD ADD GT ISZERO PUSH2 0x1EBD JUMPI PUSH1 0x0 DUP1 REVERT JUMPDEST SWAP3 POP SWAP3 SWAP1 POP JUMP JUMPDEST PUSH1 0x0 DUP1 PUSH1 0x0 DUP1 PUSH1 0x0 DUP1 PUSH1 0x0 DUP1 PUSH1 0x0 DUP1 PUSH1 0xC0 DUP12 DUP14 SUB SLT ISZERO PUSH2 0x1EE3 JUMPI PUSH1 0x0 DUP1 REVERT JUMPDEST PUSH2 0x1EEC DUP12 PUSH2 0x1CDF JUMP JUMPDEST SWAP10 POP PUSH1 0x20 DUP12 ADD CALLDATALOAD PUSH1 0x1 PUSH1 0x1 PUSH1 0x40 SHL SUB DUP2 GT ISZERO PUSH2 0x1F07 JUMPI PUSH1 0x0 DUP1 REVERT JUMPDEST PUSH2 0x1F13 DUP14 DUP3 DUP15 ADD PUSH2 0x1E79 JUMP JUMPDEST SWAP1 SWAP11 POP SWAP9 POP POP PUSH1 0x40 DUP12 ADD CALLDATALOAD PUSH1 0x1 PUSH1 0x1 PUSH1 0x40 SHL SUB DUP2 GT ISZERO PUSH2 0x1F32 JUMPI PUSH1 0x0 DUP1 REVERT JUMPDEST PUSH2 0x1F3E DUP14 DUP3 DUP15 ADD PUSH2 0x1E79 JUMP JUMPDEST SWAP1 SWAP9 POP SWAP7 POP POP PUSH1 0x60 DUP12 ADD CALLDATALOAD PUSH1 0x1 PUSH1 0x1 PUSH1 0x40 SHL SUB DUP2 GT ISZERO PUSH2 0x1F5D JUMPI PUSH1 0x0 DUP1 REVERT JUMPDEST PUSH2 0x1F69 DUP14 DUP3 DUP15 ADD PUSH2 0x1E79 JUMP JUMPDEST SWAP1 SWAP7 POP SWAP5 POP POP PUSH1 0x80 DUP12 ADD CALLDATALOAD PUSH1 0x1 PUSH1 0x1 PUSH1 0x40 SHL SUB DUP2 GT ISZERO PUSH2 0x1F88 JUMPI PUSH1 0x0 DUP1 REVERT JUMPDEST PUSH2 0x1F94 DUP14 DUP3 DUP15 ADD PUSH2 0x1E79 JUMP JUMPDEST SWAP12 SWAP15 SWAP11 SWAP14 POP SWAP9 SWAP12 SWAP8 SWAP11 SWAP7 SWAP10 SWAP6 SWAP9 SWAP5 SWAP8 SWAP5 SWAP7 SWAP6 PUSH1 0xA0 SWAP1 SWAP6 ADD CALLDATALOAD SWAP5 SWAP4 POP POP POP POP JUMP JUMPDEST PUSH4 0x4E487B71 PUSH1 0xE0 SHL PUSH1 0x0 MSTORE PUSH1 0x21 PUSH1 0x4 MSTORE PUSH1 0x24 PUSH1 0x0 REVERT JUMPDEST PUSH1 0x1 DUP1 PUSH1 0xA0 SHL SUB DUP10 AND DUP2 MSTORE DUP8 ISZERO ISZERO PUSH1 0x20 DUP3 ADD MSTORE DUP7 PUSH1 0x40 DUP3 ADD MSTORE DUP6 PUSH1 0x60 DUP3 ADD MSTORE DUP5 PUSH1 0x80 DUP3 ADD MSTORE PUSH2 0x100 PUSH1 0xA0 DUP3 ADD MSTORE PUSH1 0x0 PUSH2 0x2007 PUSH2 0x100 DUP4 ADD DUP7 PUSH2 0x1DA7 JUMP JUMPDEST SWAP1 POP PUSH1 0x4 DUP5 LT PUSH2 0x2027 JUMPI PUSH4 0x4E487B71 PUSH1 0xE0 SHL PUSH1 0x0 MSTORE PUSH1 0x21 PUSH1 0x4 MSTORE PUSH1 0x24 PUSH1 0x0 REVERT JUMPDEST PUSH1 0xC0 DUP3 ADD SWAP4 SWAP1 SWAP4 MSTORE PUSH1 0xE0 ADD MSTORE SWAP7 SWAP6 POP POP POP POP POP POP JUMP JUMPDEST PUSH1 0x0 DUP1 PUSH1 0x0 DUP1 PUSH1 0x0 DUP1 PUSH1 0xC0 DUP8 DUP10 SUB SLT ISZERO PUSH2 0x2056 JUMPI PUSH1 0x0 DUP1 REVERT JUMPDEST PUSH2 0x205F DUP8 PUSH2 0x1CDF JUMP JUMPDEST SWAP6 POP PUSH1 0x20 DUP8 ADD CALLDATALOAD SWAP5 POP PUSH1 0x40 DUP8 ADD CALLDATALOAD SWAP4 POP PUSH1 0x60 DUP8 ADD CALLDATALOAD PUSH1 0x1 PUSH1 0x1 PUSH1 0x40 SHL SUB DUP2 GT ISZERO PUSH2 0x2088 JUMPI PUSH1 0x0 DUP1 REVERT JUMPDEST PUSH2 0x2094 DUP10 DUP3 DUP11 ADD PUSH2 0x1C52 JUMP JUMPDEST SWAP7 SWAP10 SWAP6 SWAP9 POP SWAP4 SWAP7 PUSH1 0x80 DUP2 ADD CALLDATALOAD SWAP6 PUSH1 0xA0 SWAP1 SWAP2 ADD CALLDATALOAD SWAP5 POP SWAP3 POP POP POP JUMP JUMPDEST PUSH4 0x4E487B71 PUSH1 0xE0 SHL PUSH1 0x0 MSTORE PUSH1 0x11 PUSH1 0x4 MSTORE PUSH1 0x24 PUSH1 0x0 REVERT JUMPDEST DUP1 DUP3 ADD DUP1 DUP3 GT ISZERO PUSH2 0x20D8 JUMPI PUSH2 0x20D8 PUSH2 0x20AF JUMP JUMPDEST SWAP3 SWAP2 POP POP JUMP JUMPDEST PUSH1 0x60 SWAP2 SWAP1 SWAP2 SHL PUSH12 0xFFFFFFFFFFFFFFFFFFFFFFFF NOT AND DUP2 MSTORE PUSH1 0x14 ADD SWAP1 JUMP JUMPDEST PUSH1 0x1 DUP2 DUP2 SHR SWAP1 DUP3 AND DUP1 PUSH2 0x210F JUMPI PUSH1 0x7F DUP3 AND SWAP2 POP JUMPDEST PUSH1 0x20 DUP3 LT DUP2 SUB PUSH2 0x212F JUMPI PUSH4 0x4E487B71 PUSH1 0xE0 SHL PUSH1 0x0 MSTORE PUSH1 0x22 PUSH1 0x4 MSTORE PUSH1 0x24 PUSH1 0x0 REVERT JUMPDEST POP SWAP2 SWAP1 POP JUMP JUMPDEST PUSH1 0x1F DUP3 GT ISZERO PUSH2 0x1BA0 JUMPI DUP1 PUSH1 0x0 MSTORE PUSH1 0x20 PUSH1 0x0 KECCAK256 PUSH1 0x1F DUP5 ADD PUSH1 0x5 SHR DUP2 ADD PUSH1 0x20 DUP6 LT ISZERO PUSH2 0x215C JUMPI POP DUP1 JUMPDEST PUSH1 0x1F DUP5 ADD PUSH1 0x5 SHR DUP3 ADD SWAP2 POP JUMPDEST DUP2 DUP2 LT ISZERO PUSH2 0x217C JUMPI PUSH1 0x0 DUP2 SSTORE PUSH1 0x1 ADD PUSH2 0x2168 JUMP JUMPDEST POP POP POP POP POP JUMP JUMPDEST DUP2 MLOAD PUSH1 0x1 PUSH1 0x1 PUSH1 0x40 SHL SUB DUP2 GT ISZERO PUSH2 0x219C JUMPI PUSH2 0x219C PUSH2 0x1C3C JUMP JUMPDEST PUSH2 0x21B0 DUP2 PUSH2 0x21AA DUP5 SLOAD PUSH2 0x20FB JUMP JUMPDEST DUP5 PUSH2 0x2135 JUMP JUMPDEST PUSH1 0x20 PUSH1 0x1F DUP3 GT PUSH1 0x1 DUP2 EQ PUSH2 0x21E4 JUMPI PUSH1 0x0 DUP4 ISZERO PUSH2 0x21CC JUMPI POP DUP5 DUP3 ADD MLOAD JUMPDEST PUSH1 0x0 NOT PUSH1 0x3 DUP6 SWAP1 SHL SHR NOT AND PUSH1 0x1 DUP5 SWAP1 SHL OR DUP5 SSTORE PUSH2 0x217C JUMP JUMPDEST PUSH1 0x0 DUP5 DUP2 MSTORE PUSH1 0x20 DUP2 KECCAK256 PUSH1 0x1F NOT DUP6 AND SWAP2 JUMPDEST DUP3 DUP2 LT ISZERO PUSH2 0x2214 JUMPI DUP8 DUP6 ADD MLOAD DUP3 SSTORE PUSH1 0x20 SWAP5 DUP6 ADD SWAP5 PUSH1 0x1 SWAP1 SWAP3 ADD SWAP2 ADD PUSH2 0x21F4 JUMP JUMPDEST POP DUP5 DUP3 LT ISZERO PUSH2 0x2232 JUMPI DUP7 DUP5 ADD MLOAD PUSH1 0x0 NOT PUSH1 0x3 DUP8 SWAP1 SHL PUSH1 0xF8 AND SHR NOT AND DUP2 SSTORE JUMPDEST POP POP POP POP PUSH1 0x1 SWAP1 DUP2 SHL ADD SWAP1 SSTORE POP JUMP JUMPDEST PUSH1 0x80 DUP2 MSTORE PUSH1 0x0 PUSH2 0x2254 PUSH1 0x80 DUP4 ADD DUP8 PUSH2 0x1DA7 JUMP JUMPDEST DUP3 DUP2 SUB PUSH1 0x20 DUP5 ADD MSTORE PUSH2 0x2266 DUP2 DUP8 PUSH2 0x1DA7 JUMP JUMPDEST PUSH1 0x40 DUP5 ADD SWAP6 SWAP1 SWAP6 MSTORE POP POP PUSH1 0x60 ADD MSTORE SWAP3 SWAP2 POP POP JUMP JUMPDEST PUSH4 0x4E487B71 PUSH1 0xE0 SHL PUSH1 0x0 MSTORE PUSH1 0x32 PUSH1 0x4 MSTORE PUSH1 0x24 PUSH1 0x0 REVERT JUMPDEST PUSH1 0x0 DUP1 DUP4 CALLDATALOAD PUSH1 0x1E NOT DUP5 CALLDATASIZE SUB ADD DUP2 SLT PUSH2 0x22A7 JUMPI PUSH1 0x0 DUP1 REVERT JUMPDEST DUP4 ADD DUP1 CALLDATALOAD SWAP2 POP PUSH1 0x1 PUSH1 0x1 PUSH1 0x40 SHL SUB DUP3 GT ISZERO PUSH2 0x22C1 JUMPI PUSH1 0x0 DUP1 REVERT JUMPDEST PUSH1 0x20 ADD SWAP2 POP CALLDATASIZE DUP2 SWAP1 SUB DUP3 SGT ISZERO PUSH2 0x1EBD JUMPI PUSH1 0x0 DUP1 REVERT JUMPDEST DUP2 DUP2 SUB DUP2 DUP2 GT ISZERO PUSH2 0x20D8 JUMPI PUSH2 0x20D8 PUSH2 0x20AF JUMP JUMPDEST DUP2 DUP4 MSTORE DUP2 DUP2 PUSH1 0x20 DUP6 ADD CALLDATACOPY POP PUSH1 0x0 DUP3 DUP3 ADD PUSH1 0x20 SWAP1 DUP2 ADD SWAP2 SWAP1 SWAP2 MSTORE PUSH1 0x1F SWAP1 SWAP2 ADD PUSH1 0x1F NOT AND SWAP1 SWAP2 ADD ADD SWAP1 JUMP JUMPDEST PUSH1 0xA0 DUP2 MSTORE PUSH1 0x0 PUSH2 0x2326 PUSH1 0xA0 DUP4 ADD DUP8 DUP10 PUSH2 0x22E9 JUMP JUMPDEST DUP6 PUSH1 0x20 DUP5 ADD MSTORE DUP5 PUSH1 0x40 DUP5 ADD MSTORE DUP4 PUSH1 0x60 DUP5 ADD MSTORE DUP3 DUP2 SUB PUSH1 0x80 DUP5 ADD MSTORE PUSH2 0x235E DUP2 PUSH1 0x7 DUP2 MSTORE PUSH7 0x50454E44494E47 PUSH1 0xC8 SHL PUSH1 0x20 DUP3 ADD MSTORE PUSH1 0x40 ADD SWAP1 JUMP JUMPDEST SWAP9 SWAP8 POP POP POP POP POP POP POP POP JUMP JUMPDEST PUSH1 0x0 PUSH1 0x20 DUP3 DUP5 SUB SLT ISZERO PUSH2 0x237C JUMPI PUSH1 0x0 DUP1 REVERT JUMPDEST DUP2 MLOAD DUP1 ISZERO ISZERO DUP2 EQ PUSH2 0x238C JUMPI PUSH1 0x0 DUP1 REVERT JUMPDEST SWAP4 SWAP3 POP POP POP JUMP JUMPDEST DUP2 DUP4 MSTORE PUSH1 0x0 PUSH1 0x1 PUSH1 0x1 PUSH1 0xFB SHL SUB DUP4 GT ISZERO PUSH2 0x23AC JUMPI PUSH1 0x0 DUP1 REVERT JUMPDEST DUP3 PUSH1 0x5 SHL DUP1 DUP4 PUSH1 0x20 DUP8 ADD CALLDATACOPY SWAP4 SWAP1 SWAP4 ADD PUSH1 0x20 ADD SWAP4 SWAP3 POP POP POP JUMP JUMPDEST PUSH1 0x1 PUSH1 0x1 PUSH1 0xA0 SHL SUB DUP12 AND DUP2 MSTORE PUSH1 0xC0 PUSH1 0x20 DUP3 ADD DUP2 SWAP1 MSTORE PUSH1 0x0 SWAP1 PUSH2 0x23EA SWAP1 DUP4 ADD DUP12 DUP14 PUSH2 0x2393 JUMP JUMPDEST DUP3 DUP2 SUB PUSH1 0x40 DUP5 ADD MSTORE PUSH2 0x23FD DUP2 DUP11 DUP13 PUSH2 0x2393 JUMP JUMPDEST DUP4 DUP2 SUB PUSH1 0x60 DUP6 ADD MSTORE DUP8 DUP2 MSTORE SWAP1 POP PUSH1 0x20 DUP1 DUP3 ADD SWAP1 PUSH1 0x5 DUP10 SWAP1 SHL DUP4 ADD ADD DUP10 PUSH1 0x0 CALLDATASIZE DUP3 SWAP1 SUB PUSH1 0x1E NOT ADD JUMPDEST DUP12 DUP3 LT ISZERO PUSH2 0x2494 JUMPI DUP6 DUP5 SUB PUSH1 0x1F NOT ADD DUP6 MSTORE DUP3 CALLDATALOAD DUP2 DUP2 SLT PUSH2 0x2443 JUMPI PUSH1 0x0 DUP1 REVERT JUMPDEST DUP14 ADD PUSH1 0x20 DUP2 ADD SWAP1 CALLDATALOAD PUSH1 0x1 PUSH1 0x1 PUSH1 0x40 SHL SUB DUP2 GT ISZERO PUSH2 0x245F JUMPI PUSH1 0x0 DUP1 REVERT JUMPDEST DUP1 CALLDATASIZE SUB DUP3 SGT ISZERO PUSH2 0x246E JUMPI PUSH1 0x0 DUP1 REVERT JUMPDEST PUSH2 0x2479 DUP7 DUP3 DUP5 PUSH2 0x22E9 JUMP JUMPDEST SWAP6 POP POP POP PUSH1 0x20 DUP4 ADD SWAP3 POP PUSH1 0x20 DUP6 ADD SWAP5 POP PUSH1 0x1 DUP3 ADD SWAP2 POP PUSH2 0x2424 JUMP JUMPDEST POP POP POP DUP5 DUP2 SUB PUSH1 0x80 DUP7 ADD MSTORE PUSH2 0x24AA DUP2 DUP9 DUP11 PUSH2 0x2393 JUMP JUMPDEST SWAP4 POP POP POP POP DUP3 PUSH1 0xA0 DUP4 ADD MSTORE SWAP12 SWAP11 POP POP POP POP POP POP POP POP POP POP POP JUMP JUMPDEST PUSH1 0xA0 DUP2 MSTORE PUSH1 0x0 PUSH2 0x24D7 PUSH1 0xA0 DUP4 ADD DUP8 PUSH2 0x1DA7 JUMP JUMPDEST DUP6 PUSH1 0x20 DUP5 ADD MSTORE DUP5 PUSH1 0x40 DUP5 ADD MSTORE DUP4 PUSH1 0x60 DUP5 ADD MSTORE DUP3 DUP2 SUB PUSH1 0x80 DUP5 ADD MSTORE PUSH2 0x250F DUP2 PUSH1 0x7 DUP2 MSTORE PUSH7 0x50454E44494E47 PUSH1 0xC8 SHL PUSH1 0x20 DUP3 ADD MSTORE PUSH1 0x40 ADD SWAP1 JUMP JUMPDEST SWAP8 SWAP7 POP POP POP POP POP POP POP JUMP INVALID LOG2 PUSH5 0x6970667358 0x22 SLT KECCAK256 PUSH18 0xC8FDC11D14E769BDE4563C7F1611779A2A5F SAR 0xC5 DUP11 MCOPY PUSH24 0x64D3C2F631BE462664736F6C634300081C00330000000000 "},"methodIdentifiers":{"_createBulkGifts(address,uint256[],uint256[],string[],bytes32[],bytes32)":"9e85dad9","campaigns(bytes32)":"9eca2f1e","claimGift(bytes32)":"9617cff5","createBulkGifts(address,uint256[],uint256[],string[],bytes32[],bytes32)":"b0a1ae00","createCampaign(string,string,address,uint256,uint256,bytes32)":"2cccc4c4","createGift(address,uint256,uint256,string,bytes32,bytes32)":"fd7a1e0b","donateToCampaign(bytes32,uint256)":"1222b05d","getCampaignDetails(bytes32)":"5f55e1a6","gifts(bytes32)":"da138e12","reclaimGift(bytes32)":"ec2de8c1","validateGift(bytes32)":"957b8610","withdrawCampaignFunds(bytes32)":"913afba5"}}}}}